:100000000C9434000C9451000C9451000C94510049
:100010000C9451000C9451000C9451000C9451001C
:100020000C9451000C94C3010C9451000C94510099
:100030000C9451000C9451000C9451000C945100FC
:100040000C9451000C9451000C9431050C94510007
:100050000C9451000C9451000C9451000C945100DC
:100060000C9451000C94510011241FBECFEFD8E026
:10007000DEBFCDBF11E0A0E0B1E0E8E7FCE002C0E8
:1000800005900D92AA32B107D9F711E0AAE2B1E0CA
:1000900001C01D92AB39B107E1F70E946D010C94CC
:1000A0003A060C940000DF93CF9300D00F92CDB7A7
:1000B000DEB769837A838B83E981FA8121E030E0BE
:1000C00002C0220F331F8A95E2F78081822B808342
:1000D0000F900F900F90CF91DF910895DF93CF9302
:1000E00000D00F92CDB7DEB769837A838B83E98125
:1000F000FA8121E030E002C0220F331F8A95E2F737
:1001000020958081822380830F900F900F90CF9154
:10011000DF9108955E985F985D984498419A2A9A75
:10012000299A289A08952A984198449A5E9A5F9A43
:10013000289A5D9A08950895EAE7F0E0808183683F
:100140008083ECE7F0E080818064808308951092E2
:10015000B000E1EBF0E0108280818260808381E07A
:100160008093700008959093C5008093C40088E93F
:100170008093C1008EE08093C200089584B18C62A8
:1001800084B988E58CBD08958EBD0DB407FEFDCF02
:100190000895EF92FF920F931F93282F2595259591
:1001A0002595332727FD30958901000F111F020F78
:1001B000131F085F1E4FD801ED91FC91119791E03C
:1001C000E92EF12C970112960C9002C0220F331FDA
:1001D0000A94E2F7209590819223908368E00E9430
:1001E0001906E92FFF27E7FDF095E050FF4F8081CA
:1001F000886090E00E94C40080E090E00E94C4000B
:10020000D801ED91FC91119712960C9002C0EE0C62
:10021000FF1C0A94E2F780818E2980831F910F9141
:10022000FF90EF900895CF92DF92EF92FF920F939D
:100230001F93CF93DF93E62FEE24FF24E81AF90AE9
:1002400080E098E0E80EF91E862F869586958695C3
:1002500090E08C01000F111F080F191F085F1E4F3F
:10026000E801A881B98161E0C62ED12CC6010A80BF
:1002700002C0880F991F0A94E2F780952C912823D9
:100280002C938F2D992787FD9A958F70F0E0E7705A
:10029000F070E050FF4F2081822B90E00E94C4005C
:1002A000E09285018E2D90E00E94C400E881F981E2
:1002B0000A8002C0CC0CDD1C0A94E2F780818C29F4
:1002C0008083DF91CF911F910F91FF90EF90DF908E
:1002D000CF9008955A985A9A08951F9380912101BA
:1002E00090912001899F802D112480939301E0E05B
:1002F000F1E080818295807F819381E0E830F8078A
:10030000C1F78EE187B98FEF8AB98FE184B978940C
:1003100084B18C6284B988E58CBD1092B0001092D3
:10032000B1008091B10082608093B10081E0809340
:1003300070001092C50083E38093C40088E9809325
:10034000C1008EE08093C20080917A008368809320
:100350007A0080917C00806480937C0080917A0098
:10036000806480937A00809178008091780010E01A
:1003700080E090E0612F0E9413011F5F1034C1F7ED
:100380005A985A9AFFCF1F920F920FB60F921124CC
:100390002F933F934F935F936F937F938F939F938D
:1003A000AF93BF93EF93FF9320918A0130918B011C
:1003B0008091260190912701821793070CF037C393
:1003C00060912A01662309F040C020918601309196
:1003D00087012130310559F49091780090938E0176
:1003E00080917900809392019093C6000DC02230D5
:1003F000310529F4809192018093C60005C0211532
:10040000310511F48FEFADC28091220190E02817E1
:10041000390709F4D8C28091890190E0281739077B
:1004200009F4D1C201962817390709F4AAC28091AC
:10043000240190E02817390709F0C5C28091C00057
:1004400085FFC1C280919401BCC2673009F4BBC270
:10045000613009F07DC080919A01823041F1833092
:1004600030F4882351F0813009F069C00DC0833029
:1004700019F1843009F063C060C080917A00806413
:1004800080937A008FEF15C080918E0180938C014C
:1004900080919201809388019091780090938E01D1
:1004A00080917900809392019093C60048C080911A
:1004B00092018093C60043C020912B0130912C0102
:1004C00030932E0120932D0180912501882381F006
:1004D000205E3F4F30932C0120932B0180913501FA
:1004E0009091360128173907B4F01092250113C0F6
:1004F000C901809790932C0180932B0121E030E07B
:100500004091330150913401241B350B821793071E
:1005100014F46093250180912B0190912C019C0192
:10052000E4E035952795EA95E1F72093C6006091C0
:100530003E010E9413015A985A9A1092C600809167
:100540009A018F5F65E00E940D0690939A013BC26D
:10055000623009F0A0C080E180938D018091860116
:1005600090918701009721F48FEF8093C600FFC11F
:100570008130910519F480913D0123C282309105AB
:1005800009F410C283309105E9F5809192018093BE
:10059000C600382F20E080918E0190E0822B932BB3
:1005A000909395018093940120E032E0281B390B51
:1005B000309384012093830140912201842F90E0A5
:1005C0002817390760F48091330190913401909598
:1005D00081959F4F9093320180933101F4C1842F14
:1005E00090E001962817390708F0EDC181E080936B
:1005F0003D011092320110923101809135019091AC
:100600003601DBC08430910509F03FC01092C6006E
:1006100080913D01882321F0109232011092310126
:10062000809131019091320160913E010E9413014D
:100630005A985A9A209131013091320180913301B8
:100640009091340144275527481B590B241735072F
:1006500029F41092320110923101B5C18091230129
:1006600090E074E0880F991F7A95E1F7821793075D
:100670002CF45093320140933101A5C1205E3F4FCD
:1006800030933201209331019EC1059709F09BC13F
:100690001092C60090C0653009F075C08091860147
:1006A0009091870181309105B1F18230910561F41B
:1006B000809137019091380163E00E94130180918D
:1006C0003701909138010AC08330910549F480E0E8
:1006D00090E063E00E94130180E090E062E06FC070
:1006E0008430910519F40E948A006DC1853091050E
:1006F00029F4809133019091340105C08630910531
:1007000021F480E090E063E05AC08730910531F435
:100710008FEF8093C6000E94930055C188309105E9
:1007200031F4809135019091360163E026C1893022
:10073000910509F437C18A30910529F4809192011D
:100740008093C600DECF8B30910531F48091350166
:100750009091360162E011C18C30910509F422C1FB
:100760000D9709F030C1809192018093C60080E01E
:1007700090E062E00E9413015A985A9A1092870101
:100780001092860120C1663009F01DC1809186015A
:1007900090918701009761F4809137019091380121
:1007A00060913E010E9413015A985A9A8FEF09C135
:1007B0008130910549F480E090E060913E010E9413
:1007C00013015A985A9AFFC08330910509F0C4C0AA
:1007D00040913F01509140018091930190E0481772
:1007E000590718F410923B0121C09C01220F331FBE
:1007F0004217530710F481E017C0280F391F421722
:10080000530710F482E010C09C01220F331F220F07
:10081000331F4217530710F483E006C0280F391F17
:100820004217530718F484E080933B0180913B0109
:100830008093C60090E0809590959695982F882794
:1008400097958795909397018093960160913E01CB
:100850000E9413015A985A9A4091410150914201C5
:100860008091200190E04817590718F410923A013E
:1008700049C09C01220F331F4217530760F481E0E7
:1008800080933A0180E090E05A985A9A0196883213
:100890009105D1F737C0280F391F4217530760F46D
:1008A00082E080933A0180E090E05A985A9A01964B
:1008B000803A9105D1F726C0880F991F880F991F9C
:1008C0004817590768F483E080933A0180E090E08C
:1008D0005A985A9A019622E080389207C9F712C0B6
:1008E0008091930190E04817590760F484E0809369
:1008F0003A0180E090E05A985A9A01962AE08030B6
:100900009207C9F780913E010E94C9005A985A9AED
:1009100080913F0190914001019690934001809316
:100920003F012091930145E0249F90011124281755
:10093000390720F41092400110923F016091930119
:1009400080913F019091400170E00E9426069093B3
:1009500042018093410137C08430910529F4809190
:100960003A018093C60027CF8630910581F48091AB
:1009700035019091360160913E010E9413015A9811
:100980005A9A80917A00806480937A001CC08730E4
:10099000910599F480E090E060913E010E9413017E
:1009A0005A985A9A9091780090938E01809179008C
:1009B000809392019093C60006C0089721F480911D
:1009C00092018093C60010928B0110928A0180914F
:1009D0002A01853069F480918601909187018031E8
:1009E00091052CF5019690938701809386011FC095
:1009F0002091860130918701823049F4C901019626
:100A0000909387018093860109978CF00CC02F5F2B
:100A10003F4F309387012093860180918D0190E0B4
:100A20008217930724F41092870110928601809117
:100A30008A0190918B01019690938B0180938A019A
:100A4000FF91EF91BF91AF919F918F917F916F91A6
:100A50005F914F913F912F910F900FBE0F901F907C
:100A600018951F920F920FB60F9211242F933F9358
:100A70004F935F936F937F938F939F93AF93BF93A6
:100A8000EF93FF9380913C01843009F469C0853075
:100A900058F4813051F18130D0F0823009F442C0F5
:100AA000833009F09AC04FC0873009F479C088308C
:100AB00038F4853009F46AC0863009F08EC06BC006
:100AC000883009F472C0893009F087C073C0809102
:100AD000C6008F3F31F01092390183E080933C01D2
:100AE0007CC081E08093390178C02091C6002093BA
:100AF0002A01213039F484E090E09093270180931B
:100B000026016BC086E090E0909327018093260138
:100B1000223009F062C010923D0110923201109211
:100B200031015BC08091C60090E09093900180936A
:100B30008F01B4E0880F991FBA95E1F790933401C3
:100B4000809333014AC08091C60090E0A4E0880FF2
:100B5000991FAA95E1F790933601809335013DC026
:100B600080912A01823029F48091C600809322016D
:100B700034C08091C60090E0F4E0880F991FFA9588
:100B8000E1F7909338018093370127C08091C60028
:100B90008093230122C08091C600809389011DC0EB
:100BA0008091C60080938D0118C08091C60080930B
:100BB0003E0113C08091C600E0913E01F0E0ED5B84
:100BC000FE4F808380912A01833019F40E948A00AD
:100BD00004C0843011F40E9493008091230190910D
:100BE0008901890F8093240180913C018F5F6AE025
:100BF0000E940D0690933C01FF91EF91BF91AF9140
:100C00009F918F917F916F915F914F913F912F9124
:100C10000F900FBE0F901F901895991B79E004C09C
:100C2000991F961708F0961B881F7A95C9F780952B
:100C3000089587FB082E062687FD819567FD61953F
:100C4000ECDF0EF4919507FC81950895AA1BBB1B60
:100C500051E107C0AA1FBB1FA617B70710F0A61BBC
:100C6000B70B881F991F5A95A9F780959095BC01DD
:080C7000CD010895F894FFCFB7
:100C780000010203040506072B00032B00062B00C6
:100C88000725000025000128000228000328000489
:0A0C9800110502020A0106006400C3
:00000001FF
