:100000000C9434000C9451000C9451000C94510049
:100010000C9451000C9451000C9451000C9451001C
:100020000C9451000C9471010C9451000C945100EB
:100030000C9451000C9451000C9451000C945100FC
:100040000C9451000C9451000C94E7040C94510052
:100050000C9451000C9451000C9451000C945100DC
:100060000C9451000C94510011241FBECFEFD8E026
:10007000DEBFCDBF11E0A0E0B1E0EAECFBE002C0E2
:1000800005900D92A431B107D9F711E0A4E1B1E0D8
:1000900001C01D92A335B107E1F70E9418010C942D
:1000A000E3050C940000EAE7F0E080818368808338
:1000B000ECE7F0E080818064808308951092B000C6
:1000C000E1EBF0E0108280818260808381E08093A8
:1000D000700008959093C5008093C40088E98093D0
:1000E000C1008EE08093C20008958CE284B988E557
:1000F0008CBD08955E985F985D984498419A2A9ABD
:10010000299A289A089529982A984198449A5E9A9B
:100110005F9A289A5D9A08958EBD0DB407FEFDCFB3
:1001200008950F931F93CF93DF93E82F2BB18595FD
:1001300085958595C82FDD27C7FDD095C050DF4F29
:1001400001E010E0C801088002C0880F991F0A94DE
:10015000E2F7809582238BB9FF27E7FDF095EC5FEE
:10016000FE4F8081886090E00E948C0080E090E0EB
:100170000E948C008BB1088002C0000F111F0A94EE
:10018000E2F7802B8BB9DF91CF911F910F910895EA
:10019000EF92FF920F931F93CF93DF93E62F0027E9
:1001A0001127081B190B0050184F2BB1862F85956E
:1001B00085958595C82FDD27C7FDD095C050DF4FA9
:1001C00091E0E92EF12CC701088002C0880F991F29
:1001D0000A94E2F7809582238BB9812F992787FDB6
:1001E0009A958F70FF27E7FDF095EC5FFE4F208119
:1001F000822B8093420190E00E948C000093420188
:10020000802F90E00E948C008BB1088002C0EE0C21
:10021000FF1C0A94E2F78E298BB9DF91CF911F91D1
:100220000F91FF90EF90089508955A985A9A089563
:100230001F938091030190910201899F802D1124C9
:1002400080934B01E4E0F1E080818295807F81938F
:1002500081E0EC30F807C1F788B188B98EE187B941
:100260008EEF8AB98FE184B978948CE284B988E5FD
:100270008CBD1092B0001092B1008091B1008260EC
:100280008093B10081E0809370001092C50083E3F9
:100290008093C40088E98093C1008EE08093C200FF
:1002A00080917A00836880937A0080917C008064DA
:1002B00080937C0080917A00806480937A008091A2
:1002C00078008091780010E080E090E0612F0E943B
:1002D000C8001F5F1830C1F75A985A9A0E948300CD
:1002E000FFCF1F920F920FB60F9211242F933F93BF
:1002F0004F935F936F937F938F939F93AF93BF932E
:10030000EF93FF9320913E0130913F0180911001C6
:1003100090911101821793070CF03FC36091140173
:10032000662309F04AC020913A0130913B01213007
:10033000310559F4909178009093440180917900AF
:10034000809348019093C6000DC02230310529F4F6
:10035000809148018093C60005C02115310511F434
:100360008FEFC3C280910C0190E02817390709F480
:10037000EEC280913D0190E02817390709F4E7C2E9
:1003800001962817390709F4C0C280910E0190E048
:100390002817390709F0DBC28091C00085FF04C02F
:1003A00080914C018093C60010924A01109249013D
:1003B0001092390110924001CAC2613009F086C022
:1003C0008091370190913801019690933801809384
:1003D000370180915201823041F1833030F488231B
:1003E00051F0813009F069C00DC0833019F18430BB
:1003F00009F063C060C080917A00806480937A00C5
:100400008FEF15C080914401809341018091480194
:1004100080933C0190917800909344018091790001
:10042000809348019093C60048C080914801809312
:10043000C60043C020911501309116013093180178
:100440002093170180910F01882381F0205E3F4F98
:10045000309316012093150180911F019091200186
:1004600028173907B4F010920F0113C0C901809703
:10047000909316018093150121E030E040911D0119
:1004800050911E01241B350B8217930714F46093BF
:100490000F0180911501909116019C01B4E03595F2
:1004A0002795BA95E1F72093C600609128010E9434
:1004B000C8005A985A9A1092C600809152018F5FD4
:1004C00065E00E94C3059093520141C2623009F079
:1004D000A3C080E18093430140913A0150913B01D8
:1004E0004130510529F4809127018093C60077C0DF
:1004F0004230510559F490917800909344018091D5
:100500007900809348019093C6006DC04330510537
:1005100031F5809148018093C600382F20E080910A
:10052000440190E0822B932B90934D0180934C01DA
:1005300020E032E0281B390B30933601209335013F
:1005400080910C0190E02817390709F048C081E03C
:100550008093270110921C0110921B014CC0411581
:100560005105E9F58FEF8093C60020911B01309172
:100570001C01205E3F4F30931C0120931B014091D2
:100580001D0150911E0180E290E0841B950B2817FD
:10059000390729F410921C0110921B0113C080919D
:1005A0000D0190E0A4E0880F991FAA95E1F782174A
:1005B000930744F488279927841B950B90931C017B
:1005C00080931B0180912701882321F010921C0148
:1005D00010921B0180911B0190911C01AFC047300C
:1005E000510509F4A9C04930510529F480911F0132
:1005F00090912001A3C04A30510509F486C14E30C4
:10060000510509F0A4C110924A01109249011092BB
:1006100039011092400190C0653009F075C0809199
:100620003A0190913B0181309105B1F18230910501
:1006300061F4809121019091220163E00E94C80041
:1006400080912101909122010AC08330910549F4E3
:1006500080E090E063E00E94C80080E090E062E00B
:100660006FC08430910519F40E947A0070C1853002
:10067000910529F480911D0190911E0105C08630DD
:10068000910521F480E090E063E05AC08730910545
:1006900031F48FEF8093C6000E94830058C18830E8
:1006A000910531F480911F019091200163E029C1EF
:1006B0008930910509F43AC18A30910529F4809175
:1006C00048018093C600DECF8B30910531F48091D4
:1006D0001F019091200162E014C18C30910509F452
:1006E00025C10D9709F033C1809148018093C60060
:1006F00080E090E062E00E94C8005A985A9A1092F6
:100700003B0110923A0123C1663009F020C180916B
:100710003A0190913B01009761F480912101909101
:100720002201609128010E94C8005A985A9A8FEFBE
:100730000CC18130910549F480E090E0609128017E
:100740000E94C8005A985A9A02C18330910509F054
:10075000C7C04091290150912A0120914B01822F5D
:1007600090E04817590718F41092250123C0822FF2
:1007700090E09C01220F331F4217530710F481E0D1
:1007800017C0280F391F4217530710F482E010C01A
:100790009C01220F331F220F331F4217530710F4FF
:1007A00083E006C0280F391F4217530718F484E06E
:1007B00080932501809125018093C60090E080956B
:1007C00090959695982F88279795879590934F01A8
:1007D00080934E01609128010E94C8005A985A9A4D
:1007E00040912B0150912C018091020190E048171B
:1007F000590718F41092240149C09C01220F331F9D
:100800004217530760F481E08093240180E090E078
:100810005A985A9A019688329105D1F737C0280F15
:10082000391F4217530760F482E08093240180E06F
:1008300090E05A985A9A0196803A9105D1F726C0CD
:10084000880F991F880F991F4817590768F483E08C
:100850008093240180E090E05A985A9A019622E011
:1008600080389207C9F712C080914B0190E0481779
:10087000590760F484E08093240180E090E05A9866
:100880005A9A01962AE080309207C9F78091280190
:100890000E9491005A985A9A8091290190912A01B8
:1008A000019690932A018093290120914B0145E004
:1008B000249F900111242817390720F410922A014F
:1008C0001092290160914B018091290190912A0198
:1008D00070E00E94CF0590932C0180932B0137C0CC
:1008E0008430910529F4809124018093C60024CF9F
:1008F0008630910581F480911F01909120016091D3
:1009000028010E94C8005A985A9A80917A008064FF
:1009100080937A001CC08730910599F480E090E0C4
:10092000609128010E94C8005A985A9A90917800C4
:100930009093440180917900809348019093C60080
:1009400006C0089721F4809148018093C600109258
:100950003F0110923E018091140120913A013091A3
:100960003B01853089F02F5F3F4F30933B0120934F
:100970003A018091430190E08217930774F410923A
:100980003B0110923A0109C02031310534F42F5F48
:100990003F4F30933B0120933A0180913E0190916B
:1009A0003F01019690933F0180933E01FF91EF91AB
:1009B000BF91AF919F918F917F916F915F914F9177
:1009C0003F912F910F900FBE0F901F9018951F927F
:1009D0000F920FB60F9211242F933F934F935F9373
:1009E0006F937F938F939F93AF93BF93EF93FF93F7
:1009F00080912601843009F469C0853058F4813033
:100A000051F18130D0F0823009F442C0833009F0D6
:100A10009AC04FC0873009F479C0883038F48530E7
:100A200009F46AC0863009F08EC06BC0883009F4C2
:100A300072C0893009F087C073C08091C6008F3FB3
:100A400031F01092230183E0809326017CC081E085
:100A50008093230178C02091C60020931401213097
:100A600039F484E090E090931101809310016BC001
:100A700086E090E09093110180931001223009F0FC
:100A800062C01092270110921C0110921B015BC0E2
:100A90008091C60090E0909346018093450144E028
:100AA000880F991F4A95E1F790931E0180931D01CD
:100AB0004AC08091C60090E034E0880F991F3A95B3
:100AC000E1F79093200180931F013DC080911401B4
:100AD000823029F48091C60080930C0134C080914B
:100AE000C60090E024E0880F991F2A95E1F79093C3
:100AF00022018093210127C08091C60080930D01BF
:100B000022C08091C60080933D011DC08091C60027
:100B10008093430118C08091C6008093280113C0C0
:100B20008091C600E0912801F0E0E35DFE4F8083F4
:100B300080911401833019F40E947A0004C084303B
:100B400011F40E94830080910D0190913D01890F65
:100B500080930E01809126018F5F6AE00E94C30599
:100B600090932601FF91EF91BF91AF919F918F914B
:100B70007F916F915F914F913F912F910F900FBE99
:100B80000F901F901895991B79E004C0991F961734
:100B900008F0961B881F7A95C9F780950895AA1BBF
:100BA000BB1B51E107C0AA1FBB1FA617B70710F058
:100BB000A61BB70B881F991F5A95A9F7809590958A
:0A0BC000BC01CD010895F894FFCFA9
:100BCA0005060E05000102030706050402020A01D2
:040BDA0006006400AD
:00000001FF
