:100000000C9434000C9451000C9451000C94510049
:100010000C9451000C9451000C9451000C9451001C
:100020000C9451000C9419010C9451000C94510043
:100030000C9451000C9451000C9451000C945100FC
:100040000C9451000C9451000C94C1030C94510079
:100050000C9451000C9451000C9451000C945100DC
:100060000C9451000C94510011241FBECFEFD8E026
:10007000DEBFCDBF11E0A0E0B1E0E4E4F9E002C0F2
:1000800005900D92A031B107D9F711E0A0E1B1E0E0
:1000900001C01D92A434B107E1F70E94C9000C947D
:1000A000A0040C940000EAE7F0E08081836880837C
:1000B000ECE7F0E080818064808308951092B000C6
:1000C000E1EBF0E0108280818260808381E08093A8
:1000D000700008959093C5008093C40088E98093D0
:1000E000C1008EE08093C20008958CE284B988E557
:1000F0008CBD08955E985F985D984498419A2A9ABD
:10010000299A289A089529982A984198449A5E9A9B
:100110005F9A289A5D9A08958EBD0DB407FEFDCFB3
:1001200008955B98E82FFF27E7FDF095E050FF4F1B
:100130008081886090E00E948C0080E090E00E94C6
:100140008C005B9A08950F931F93E62F00271127C9
:10015000081B190B0050184F5B98812F992787FDBA
:100160009A958F70FF27E7FDF095E050FF4F2081B3
:10017000822B8093380190E00E948C00009338011C
:10018000802F90E00E948C005B9A1F910F91089540
:1001900008951F93E0E0F1E080818295807F819354
:1001A00081E0E830F807C1F788B188B98EE187B9F6
:1001B0008EEF8AB98FE184B978948CE284B988E5AE
:1001C0008CBD1092B0001092B1008091B10082609D
:1001D0008093B10081E0809370001092C50083E3AA
:1001E0008093C40088E98093C1008EE08093C200B0
:1001F00080917A00836880937A0080917C0080648B
:1002000080937C0080917A00806480937A00809152
:1002100078008091780010E080E090E0612F0E94EB
:10022000A3001F5F1830C1F75A985A9A0E948300A2
:10023000FFCF1F920F920FB60F9211242F933F936F
:100240004F935F936F937F938F939F93AF93BF93DE
:10025000EF93FF93209134013091350180910C018F
:1002600090910D01821793070CF071C260911001FB
:10027000662309F065C020913001309131012130B1
:10028000310559F49091780090933A01809179006A
:1002900080933C019093C6001BC02230310529F4A5
:1002A00080913C018093C60013C02115310581F473
:1002B0008FEF8093C6008091190190911A0160918F
:1002C00022010E94A3008091190190911A0132C06D
:1002D0008091080190E02817390709F4E0C1809166
:1002E000330190E02817390709F439C1019628171E
:1002F000390709F4E4C180910A0190E02817390711
:1003000009F0FFC18091C00085FF04C080913F01CA
:100310008093C60010923E0110923D0110922F0171
:100320001092360180E090E0609122010E94A300CB
:1003300080E090E062E00E94A3005A985A9AE1C1DE
:10034000613009F07CC080912D0190912E010196C1
:1003500090932E0180932D0180914301813079F09B
:10036000813030F08230F1F0833009F061C01FC07D
:1003700080917A00806480937A008FEF15C080911D
:100380003A018093370180913C0180933201909132
:10039000780090933A018091790080933C0190938A
:1003A000C60046C080913C018093C60041C02091A8
:1003B00011013091120130931401209313018091A7
:1003C0000B01882381F0205E3F4F30931201209370
:1003D000110180911B0190911C0128173907B4F07D
:1003E00010920B0113C0C901809790931201809362
:1003F000110121E030E04091190150911A01241BB4
:10040000350B8217930714F460930B01809111014F
:10041000909112019C0174E0359527957A95E1F74A
:100420002093C600609122010E94A3005A985A9A14
:10043000809143018F5F83708093430162C162307A
:1004400009F0A3C080E180933901409130015091BF
:1004500031014130510529F4809121018093C6007A
:1004600077C04230510559F49091780090933A0149
:100470008091790080933C019093C6006DC0433019
:10048000510531F580913C018093C600382F20E062
:1004900080913A0190E0822B932B909340018093BE
:1004A0003F0120E032E0281B390B30932C012093D0
:1004B0002B018091080190E02817390709F048C006
:1004C00081E08093210110921801109217014CC015
:1004D00041155105E9F58FEF8093C6002091170172
:1004E00030911801205E3F4F30931801209317017F
:1004F0004091190150911A0180E290E0841B950B04
:100500002817390729F4109218011092170113C007
:100510008091090190E064E0880F991F6A95E1F7E6
:100520008217930744F488279927841B950B90938F
:1005300018018093170180912101882321F01092E6
:1005400018011092170180911701909118018CC029
:100550004730510509F4A3C04930510529F4809171
:100560001B0190911C0180C04A30510509F4A7C0BD
:100570004E30510509F0C5C010923E0110923D0168
:1005800010922F01109236018AC0653009F05FC0C9
:100590008091300190913101009749F181309105AE
:1005A00041F480E897E063E00E94A30080E897E0D0
:1005B000C1CE8230910521F480E090E063E0B6CEB8
:1005C0008330910519F40E947A009BC08430910514
:1005D00029F48091190190911A0122C0853091056A
:1005E000E9F08630910531F48FEF8093C6000E94C8
:1005F000830087C08730910531F480911B01909171
:100600001C0163E058C08930910509F469C08A3043
:10061000910541F480913C018093C60080E090E018
:1006200063E089CE8B30910531F480911B0190916C
:100630001C0162E040C08D30910509F451C00E9755
:1006400009F05FC080913C018093C60071CE663096
:1006500009F057C08091300190913101009739F431
:1006600080911D0190911E016091220164CE813024
:100670009105A9F08330910579F480911901909149
:100680001A01609122010E94A3005A985A9A8091FF
:1006900022010E94910051CE8430910519F480E02E
:1006A00090E0E2CF8630910581F480911B0190911A
:1006B0001C01609122010E94A3005A985A9A8091CD
:1006C0007A00806480937A001CC08730910599F489
:1006D00080E090E0609122010E94A3005A985A9A0B
:1006E0009091780090933A018091790080933C0139
:1006F0009093C60006C0089721F480913C01809336
:10070000C6001092350110923401809110012091A1
:10071000300130913101853089F02F5F3F4F3093A8
:100720003101209330018091390190E082179307C5
:1007300074F4109231011092300109C02E3131054C
:1007400034F42F5F3F4F309331012093300180917B
:1007500034019091350101969093350180933401D5
:10076000FF91EF91BF91AF919F918F917F916F9189
:100770005F914F913F912F910F900FBE0F901F905F
:1007800018951F920F920FB60F9211242F933F933B
:100790004F935F936F937F938F939F93AF93BF9389
:1007A000EF93FF9380912001843009F465C0853078
:1007B00058F4813051F18130D0F0823009F442C0D8
:1007C000833009F091C04BC0873009F46CC0883089
:1007D00038F4853009F45DC0863009F085C05EC00C
:1007E000883009F465C0893009F07EC066C0809108
:1007F000C6008F3F31F010921F0183E080932001EB
:1008000073C081E080931F016FC02091C6002093C8
:100810001001213039F484E090E090930D01809331
:100820000C0162C086E090E090930D0180930C0172
:10083000223009F059C01092210110921801109233
:10084000170152C08091C60090E0A4E0880F991F64
:10085000AA95E1F790931A018093190145C0809100
:10086000C60090E0F4E0880F991FFA95E1F79093A5
:100870001C0180931B0138C08091C60090E0E4E029
:10088000880F991FEA95E1F790931E0180931D014F
:100890002BC08091C6008093090126C08091C600BC
:1008A0008093330121C08091C600809339011CC020
:1008B0008091C6008093220117C08091C600E0910C
:1008C0002201F0E0ED5DFE4F808310923101109225
:1008D000300180911001833019F40E947A0004C025
:1008E000843011F40E9483008091090190913301BA
:1008F000890F80930A01809120018F5F6AE00E9436
:10090000940490932001FF91EF91BF91AF919F913B
:100910008F917F916F915F914F913F912F910F90A8
:100920000FBE0F901F901895991B79E004C0991F76
:10093000961708F0961B881F7A95C9F78095089539
:04094000F894FFCF59
:10094400000102030706050402020A01060064000E
:00000001FF
