:100000000C9434000C9446000C9446000C9446006A
:100010000C9446000C9446000C9446000C94460048
:100020000C9446000C9446000C9446000C94460038
:100030000C9446000C9446000C9446000C94460028
:100040000C9446000C9446000C9479010C944600E4
:100050000C9446000C9446000C9446000C94460008
:100060000C9446000C94460011241FBECFEFD8E03C
:10007000DEBFCDBF11E0A0E0B1E001C01D92AA300B
:10008000B107E1F70E9474000C9421030C94000066
:100090009093C5008093C40080E98093C1008EE0F6
:1000A0008093C20008958CE284B98AE58CBD0895DE
:1000B0008EBD0DB407FEFDCF08950F931F938C01E5
:1000C0000050184F5A98812F8F708093060190E04E
:1000D0000E94580000930601802F90E00E94580073
:1000E0005A9A1F910F910895AF92BF92CF92DF92CB
:1000F000EF92FF920F931F93CF93DF9378948CE24C
:1001000084B98AE58CBD86E08AB91092C50083E384
:100110008093C40080E98093C1008EE08093C20088
:10012000C0E9D1E080910001909101010E945D0041
:100130005998599A6091090170E080E090E00E941E
:10014000FC015B016C0120E030E04AE755E40E94CD
:100150008A027B018C0120E030E040E85FE30E94EE
:10016000CC0188231CF461E070E022C0C801B70113
:1001700020E03FEF4FE757E40E9486021816A4F4F0
:10018000C601B50120E030E040E251E40E948A025D
:100190000E94D00105C0CE010197F1F76150704077
:1001A00061157105C1F707C0C801B7010E94D001F0
:1001B000CB010197F1F780E090E00E945D00599833
:1001C000599A6091070170E080E090E00E94FC0184
:1001D0005B016C0120E030E04AE755E40E948A02AE
:1001E0007B018C0120E030E040E85FE30E94CC011D
:1001F00088231CF461E070E022C0C801B70120E050
:100200003FEF4FE757E40E9486021816A4F4C60198
:10021000B50120E030E040E251E40E948A020E94F1
:10022000D00105C0CE010197F1F761507040611512
:100230007105C1F707C0C801B7010E94D001CB0109
:100240000197F1F780910201909103010E945D00F6
:100250005998599A6091050170E080E090E00E9401
:10026000FC015B016C0120E030E04AE755E40E94AC
:100270008A027B018C0120E030E040E85FE30E94CD
:10028000CC0188231CF461E070E022C0C801B701F2
:1002900020E03FEF4FE757E40E9486021816A4F4CF
:1002A000C601B50120E030E040E251E40E948A023C
:1002B0000E94D00105C0CE010197F1F76150704056
:1002C00061157105C1F707C0C801B7010E94D001CF
:1002D000CB010197F1F780E090E00E945D00599812
:1002E000599A84EF91E0FE013197F1F70197D9F720
:1002F00019CF1F920F920FB60F9211242F936F9365
:100300007F938F939F9320910401223031F123300A
:1003100028F4222341F0213071F512C0233011F16D
:10032000243049F524C08091C60090E074E0880F25
:10033000991F7A95E1F790930101809300011BC00A
:100340008091C60090E064E0880F991F6A95E1F7FC
:1003500090930301809302010EC08091C6008093A8
:10036000090109C08091C6008093050104C08091F5
:10037000C60080930701822F8F5F65E00E941503FE
:10038000909304019F918F917F916F912F910F9086
:100390000FBE0F901F9018956CD008F481E008955F
:1003A00094D088F09F5790F0B92F9927B751A0F0BB
:1003B000D1F0660F771F881F991F1AF0BA95C9F7F9
:1003C00012C0B13081F09BD0B1E0089598C0672F82
:1003D000782F8827B85F39F0B93FCCF386957795A9
:1003E0006795B395D9F73EF4909580957095619592
:1003F0007F4F8F4F9F4F0895E89409C097FB3EF4BD
:1004000090958095709561957F4F8F4F9F4F992361
:10041000A9F0F92F96E9BB279395F69587957795DF
:100420006795B795F111F8CFFAF4BB0F11F460FF9F
:100430001BC06F5F7F4F8F4F9F4F16C0882311F0F7
:1004400096E911C0772321F09EE8872F762F05C00B
:10045000662371F096E8862F70E060E02AF09A95A6
:10046000660F771F881FDAF7880F9695879597F99B
:100470000895990F0008550FAA0BE0E8FEEF161635
:100480001706E807F907C0F012161306E407F50788
:1004900098F0621B730B840B950B39F40A2661F0FC
:1004A000232B242B252B21F408950A2609F4A1409F
:1004B000A6958FEF811D811D089557FD9058440F1B
:1004C000551F59F05F3F71F04795880F97FB991FB3
:1004D00061F09F3F79F08795089512161306140670
:1004E000551FF2CF4695F1DF08C0161617061806FD
:1004F000991FF1CF86957105610508940895E894D8
:10050000BB2766277727CB0197F90895B2DF08F458
:100510008FEF08950BD078C069D028F06ED018F016
:10052000952309F05AC05FC01124EACFC6DFA0F3BB
:10053000959FD1F3950F50E0551F629FF001729F78
:10054000BB27F00DB11D639FAA27F00DB11DAA1F97
:10055000649F6627B00DA11D661F829F2227B00DE4
:10056000A11D621F739FB00DA11D621F839FA00D6F
:10057000611D221F749F3327A00D611D231F849FBF
:10058000600D211D822F762F6A2F11249F57504016
:100590008AF0E1F088234AF0EE0FFF1FBB1F661FB1
:1005A000771F881F91505040A9F79E3F510570F06A
:1005B00014C0A6CF5F3FECF3983EDCF386957795A9
:1005C0006795B795F795E7959F5FC1F7FE2B880F65
:1005D000911D9695879597F9089597F99F6780E8FB
:1005E00070E060E008959FEF80EC089500240A9485
:1005F0001616170618060906089500240A941216FE
:100600001306140605060895092E0394000C11F430
:10061000882352F0BB0F40F4BF2B11F460FF04C0DD
:100620006F5F7F4F8F4F9F4F0895991B79E004C0F4
:10063000991F961708F0961B881F7A95C9F7809521
:060640000895F894FFCFBD
:00000001FF
