:100000000C9434000C9451000C9451000C94510049
:100010000C9451000C9451000C9451000C9451001C
:100020000C9451000C94C8000C9451000C94510095
:100030000C9451000C9451000C9451000C945100FC
:100040000C9451000C9451000C9465010C945100D7
:100050000C9451000C9451000C9451000C945100DC
:100060000C9451000C94510011241FBECFEFD8E026
:10007000DEBFCDBF11E0A0E0B1E0E6EAF3E002C0F0
:1000800005900D92A430B107D9F711E0A4E0B1E0DA
:1000900001C01D92A731B107E1F70E9496000C94B0
:1000A000D1010C940000EAE7F0E08081836880834E
:1000B000ECE7F0E080818064808308951092B000C6
:1000C000E1EBF0E0108280818260808381E08093A8
:1000D000700008959093C5008093C40088E98093D0
:1000E000C1008EE08093C20008958CE284B98AE555
:1000F0008CBD08958EBD0DB407FEFDCF08950F93FE
:100100001F938C010050184F5B98812F8F70809344
:100110000D0190E00E947A0000930D01802F90E085
:100120000E947A005B9A1F910F91089578948CE257
:1001300084B98AE58CBD1092B0001092B100809114
:10014000B10082608093B10081E0809370008CE008
:100150008AB91092C50083E38093C40088E9809334
:10016000C1008EE08093C20080917A008368809302
:100170007A0080917C00806480937C0080917A007A
:10018000806480937A008091780080917800FFCF1E
:100190001F920F920FB60F9211242F933F934F93FC
:1001A0005F936F937F938F939F93AF93BF93EF93DF
:1001B000FF9320910A0130910B01809100019091F1
:1001C00001012817390709F066C020911501309107
:1001D000160121303105C9F48091780090917900A1
:1001E0009295990F990F907C86958695982B909370
:1001F00012018091C00085FF02C09093C6008091DB
:100200007A00806480937A0008C02115310529F4B2
:10021000809104019091050119C08091100190E036
:100220002817390789F08091090190E028173907CC
:1002300029F4809106019091070108C08091110175
:1002400090E02817390731F480E090E00E947F00A9
:100250005A985A9A10920B0110920A018091150136
:1002600090911601019690931601809315012091AB
:100270001301309114012F5F3F4F309314012093ED
:10028000130120910E0130E02817390724F4109251
:1002900016011092150180910A0190910B010196AF
:1002A00090930B0180930A01FF91EF91BF91AF9161
:1002B0009F918F917F916F915F914F913F912F917E
:1002C0000F900FBE0F901F9018951F920F920FB6B0
:1002D0000F9211242F936F937F938F939F9320916D
:1002E0000801223041F1233028F4222351F021303B
:1002F000A1F514C0243049F1243010F1253069F5FE
:1003000028C08091C60090E074E0880F991F7A950C
:10031000E1F790930501809304011FC08091C6000E
:1003200090E064E0880F991F6A95E1F790930701C8
:100330008093060112C08091C600809310010DC009
:100340008091C60080930C0108C08091C600809304
:1003500009018091C60080930E0180910C0190915B
:100360000901890F80931101822F8F5F66E00E943F
:10037000C501909308019F918F917F916F912F916B
:100380000F900FBE0F901F901895991B79E004C035
:10039000991F961708F0961B881F7A95C9F78095C4
:0603A0000895F894FFCF60
:0403A60004006400EB
:00000001FF
