:100000000C9434000C9451000C9451000C94510049
:100010000C9451000C9451000C9451000C9451001C
:100020000C9451000C94AA000C9451000C945100B3
:100030000C9451000C9451000C9451000C945100FC
:100040000C9451000C9451000C9422010C9451001A
:100050000C9451000C9451000C9451000C945100DC
:100060000C9451000C94510011241FBECFEFD8E026
:10007000DEBFCDBF11E0A0E0B1E0E4E1F3E002C0FB
:1000800005900D92A430B107D9F711E0A4E0B1E0DA
:1000900001C01D92A331B107E1F70E948B000C94BF
:1000A00088010C9400001092B000E1EBF0E01082A7
:1000B00080818260808381E08093700008959093B6
:1000C000C5008093C40088E98093C1008EE08093CE
:1000D000C20008958CE284B98AE58CBD08958EBD76
:1000E0000DB407FEFDCF08950F931F938C010050B0
:1000F000184F5B98812F8F7080930C0190E00E94C5
:100100006F0000930C01802F90E00E946F005B9ABB
:100110001F910F91089578948CE284B98AE58CBD83
:100120001092B0001092B1008091B1008260809373
:10013000B10081E0809370008CE08AB91092C50014
:1001400083E38093C40088E98093C1008EE08093AC
:10015000C200FFCF1F920F920FB60F9211242F9360
:100160003F934F935F936F937F938F939F93AF933F
:10017000BF93EF93FF932091090130910A01809181
:100180000001909101012817390709F041C0209121
:100190001101309112012115310529F480910401DA
:1001A0009091050119C080910F0190E0281739073F
:1001B00089F080910D0190E02817390729F480918A
:1001C00006019091070108C08091100190E0281766
:1001D000390731F480E090E00E9474005A985A9AEE
:1001E00010920A011092090180911101909112015F
:1001F0000196909312018093110120910201309198
:1002000003018217930721F4109212011092110139
:100210008091090190910A01019690930A018093BF
:100220000901FF91EF91BF91AF919F918F917F91C4
:100230006F915F914F913F912F910F900FBE0F9053
:100240001F9018951F920F920FB60F9211242F93A3
:100250006F937F938F939F9320910801223031F108
:10026000233028F4222341F0213071F512C02330CD
:1002700011F1243049F524C08091C60090E074E06B
:10028000880F991F7A95E1F79093050180930401F7
:100290001BC08091C60090E064E0880F991F6A95AA
:1002A000E1F790930701809306010EC08091C6008C
:1002B00080930F0109C08091C60080930B0104C098
:1002C0008091C60080930D0180910B0190910D01EA
:1002D000890F80931001822F8F5F65E00E947C015F
:1002E000909308019F918F917F916F912F910F9023
:1002F0000FBE0F901F901895991B79E004C0991FAD
:10030000961708F0961B881F7A95C9F7809508956F
:04031000F894FFCF8F
:04031400040064007D
:00000001FF
