:100000000C9434000C9451000C9451000C94510049
:100010000C9451000C9451000C9451000C9451001C
:100020000C9451000C9456020C9451000C94510005
:100030000C9451000C9451000C9451000C945100FC
:100040000C9451000C9451000C9413050C94510025
:100050000C9451000C9451000C9451000C945100DC
:100060000C9451000C94510011241FBECFEFD8E026
:10007000DEBFCDBF11E0A0E0B1E0E6E2FCE002C0EF
:1000800005900D92A233B107D9F711E0A2E3B1E0D8
:1000900001C01D92AD3AB107E1F70E9400020C9435
:1000A00011060C940000DF93CF9300D00F92CDB7D0
:1000B000DEB769837A838B83E981FA8121E030E0BE
:1000C00002C0220F331F8A95E2F78081822B808342
:1000D0000F900F900F90CF91DF910895DF93CF9302
:1000E00000D00F92CDB7DEB769837A838B83E98125
:1000F000FA8121E030E002C0220F331F8A95E2F737
:1001000020958081822380830F900F900F90CF9154
:10011000DF910895E0911B01F0911C0141E050E056
:10012000CA0100901D0102C0880F991F0A94E2F7CE
:100130008095208128232083E0911E01F0911F01EA
:10014000CA010090200102C0880F991F0A94E2F7AB
:100150008095208128232083E0911801F0911901D6
:10016000CA0100901A0102C0880F991F0A94E2F791
:10017000809520812823208341982A982998E0910E
:100180002101F0912201CA010090230102C0880FD1
:10019000991F0A94E2F78095208128232083E0911B
:1001A0002401F09125010090260102C0440F551F43
:1001B0000A94E2F78081842B8083089529982A98F5
:1001C0004198E0912401F091250121E030E0A9015E
:1001D0000090260102C0440F551F0A94E2F7808167
:1001E000842B8083E0911B01F0911C01A9010090F8
:1001F0001D0102C0440F551F0A94E2F78081842B31
:100200008083E0911E01F0911F01A901009020015F
:1002100002C0440F551F0A94E2F78081842B80832B
:10022000E0912101F0912201A9010090230102C077
:10023000440F551F0A94E2F78081842B8083E0915C
:100240001801F091190100901A0102C0220F331F0A
:100250000A94E2F78081822B808308950895EAE76B
:10026000F0E0808183688083ECE7F0E08081806447
:10027000808308951092B000E1EBF0E0108280815D
:100280008260808381E08093700008959093C50020
:100290008093C40088E98093C1008EE08093C200FF
:1002A000089584B18C6284B988E58CBD08958EBDB3
:1002B0000DB407FEFDCF0895EF92FF920F931F93A9
:1002C000282F259525952595332727FD30958901DC
:1002D000000F111F020F131F00501F4FD801ED9187
:1002E000FC91119791E0E92EF12C970112960C9058
:1002F00002C0220F331F0A94E2F7209590819223C7
:10030000908368E00E940406E92FFF27E7FDF0953F
:10031000EB55FE4F8081886090E00E94570180E09D
:1003200090E00E945701D801ED91FC91119712962F
:100330000C9002C0EE0CFF1C0A94E2F780818E291B
:1003400080831F910F91FF90EF900895CF92DF92DD
:10035000EF92FF920F931F93CF93DF93E62FEE243C
:10036000FF24E81AF90A80E098E0E80EF91E862FCB
:1003700086958695869590E08C01000F111F080FD9
:10038000191F00501F4FE801A881B98161E0C62EF6
:10039000D12CC6010A8002C0880F991F0A94E2F787
:1003A00080952C9128232C938F2D992787FD9A9542
:1003B0008F70F0E0E770F070EB55FE4F2081822BDC
:1003C00090E00E945701E0928E018E2D90E00E94F5
:1003D0005701E881F9810A8002C0CC0CDD1C0A9427
:1003E000E2F780818C298083DF91CF911F910F915B
:1003F000FF90EF90DF90CF9008955A985A9A089501
:100400001F938091280190912701899F802D1124AD
:1004100080939D01E5EAF1E090E0892F8295807F4D
:1004200081939F5F9830C9F78EE187B98FEF8AB9C2
:100430008FE184B9789484B18C6284B988E58CBDED
:100440001092B0001092B1008091B1008260809350
:10045000B10081E0809370001092C50083E3809327
:10046000C40088E98093C1008EE08093C20080912F
:100470007A00836880937A0080917C008064809306
:100480007C0080917A00806480937A00809178006B
:100490008091780010E080E090E0612F0E94A6013A
:1004A0001F5F1034C1F75A985A9AFFCF1F920F92CC
:1004B0000FB60F9211242F933F934F935F936F9337
:1004C0007F938F939F93AF93BF93EF93FF9380910D
:1004D0004701882309F496C2209195013091960135
:1004E00080912D0190912E01821793070CF081C20B
:1004F00080913201882389F580918F01909190013C
:10050000009721F48FEF8093C60019C181309105C7
:1005100031F480917A00806480937A00D1C0823077
:10052000910509F4CDC08330910509F42DC28430C2
:10053000910559F4909178009093980180917900F9
:1005400080939C019093C60045C1059709F01CC299
:1005500080919C018093C60015C2873031F580934D
:10056000970180918F0190919001009791F48FEF06
:100570008093C60080919101992787FD9095A4E012
:10058000880F991FAA95E1F790933C0180933B0156
:1005900088C08130910509F493C08230910509F437
:1005A000D7C183309105B9F429C0813009F066C004
:1005B00080918F019091900182309105F9F0833004
:1005C000910534F4009759F0019709F0DDC10DC091
:1005D00083309105B1F0049709F0D6C1D1C1809163
:1005E0007A00806480937A0036C18091980180936C
:1005F000940180919C0180939201AAC180919C01F9
:100600002BC1209133013091340130933601209376
:10061000350180912C01882381F0205E3F4F30937B
:1006200034012093330180913D0190913E012817C0
:100630003907BCF010922C0114C0C9018097909327
:1006400034018093330121E030E040913B0150912F
:100650003C01241B350B821793071CF481E0809327
:100660002C0180913301909134019C01F4E0359587
:100670002795FA95E1F72093C600AEC0823009F0C5
:10068000AEC080E18093970180918F01909190019D
:10069000009799F48FEF8093C60080913D0190916F
:1006A0003E01609146010E94A6015A985A9A809193
:1006B0007A00806480937A0067C18130910519F4D3
:1006C0001092C60061C18230910509F441C18330A6
:1006D0009105D1F580919C018093C600382F20E0D0
:1006E0008091980190E0822B932B90939F018093AF
:1006F0009E0120E032E0281B390B30938D012093BE
:100700008C018091290190E02817390760F48091CD
:100710003B0190913C01909581959F4F90933A01B8
:100720008093390131C101962817390708F02CC18F
:1007300081E08093450110923A0110923901809135
:100740003D0190913E0148C08430910509F03FC0C1
:10075000809145018093C600882321F010923A01D0
:10076000109239018091390190913A0160914601CE
:100770000E94A6015A985A9A2091390130913A0163
:1007800080913B0190913C0144275527481B590B10
:100790002417350729F410923A0110923901F4C058
:1007A00080912A0190E0E4E0880F991FEA95E1F733
:1007B000821793072CF450933A0140933901E4C017
:1007C000205E3F4F30933A0120933901DDC00597F9
:1007D00009F0DAC080E090E06091460157C08830AF
:1007E000F1F580918F0190919001009709F45CC020
:1007F00081309105D1F480913F019091400160E0FA
:100800000E94A60180913F019091400161E00E9409
:10081000A60180913F019091400162E00E94A601F3
:1008200080913F0190914001A7C08230910581F4F1
:1008300080E090E060E00E94A60180E090E061E04E
:100840000E94A60180E090E062E00E94A60192C0B2
:100850008330910561F58FEF8093C60095C0853098
:1008600009F092C080918F0190919001009719F446
:100870000E948A0089C08130910569F480913B0112
:1008800090913C01909581959F4F60E00E94A60158
:100890005A985A9A79C082309105E9F083309105CF
:1008A00031F48FEF8093C6000E94DE006DC084306B
:1008B000910531F480913D0190913E0160E0F3CECD
:1008C0008530910509F444C08630910539F4809152
:1008D0009C018093C60080E090E0D7CF87309105DF
:1008E00031F480913D0190913E0161E0DCCE883091
:1008F000910571F18930910541F480919C018093BB
:10090000C60080E090E061E0C1CF8A30910531F40B
:1009100080913D0190913E0162E0C5CE8B30910502
:10092000B9F08C30910541F480919C018093C60010
:1009300080E090E062E0AACF8D30910531F48091A3
:100940003D0190913E0163E0AECE8E30910559F4A9
:1009500090917800909398018091790080939C0108
:100960009093C60011C08F30910541F480919C0195
:100970008093C60080E090E063E088CF409721F448
:100980001092C600109247011092960110929501A4
:1009900080913201823051F080914701882349F1E2
:1009A00080918F019091900101961FC08091450127
:1009B00020918F0130919001882369F4C90101963B
:1009C0009093900180938F0108979CF01092900172
:1009D00010928F010EC0C9010196909390018093EF
:1009E0008F01089734F088E090E090939001809315
:1009F0008F018091950190919601019690939601B7
:100A000080939501FF91EF91BF91AF919F918F914D
:100A10007F916F915F914F913F912F910F900FBEFA
:100A20000F901F9018951F920F920FB60F921124DE
:100A30002F933F934F935F936F937F938F939F93E6
:100A4000AF93BF93EF93FF9380914401843009F4F7
:100A50006BC0853058F4813051F18130D0F0823054
:100A600009F442C0833009F0A3C051C0873009F4B3
:100A70007BC0883038F4853009F46CC0863009F0CA
:100A800097C06DC0883009F474C0893009F090C0F7
:100A900075C08091C6008F3F31F01092410183E014
:100AA0008093440185C081E08093410181C0209101
:100AB000C60020933201213039F484E090E0909315
:100AC0002E0180932D0174C086E090E090932E015A
:100AD00080932D01223009F06BC0109245011092D5
:100AE0003A011092390164C08091C600809391014F
:100AF00090E090939A018093990134E0880F991FB8
:100B00003A95E1F790933C0180933B0151C080916D
:100B1000C60090E024E0880F991F2A95E1F7909392
:100B20003E0180933D0144C080913201823029F41E
:100B30008091C600809329013BC08091C60090E05F
:100B4000B4E0880F991FBA95E1F790934001809324
:100B50003F012EC08091C60080932A0129C0809158
:100B6000C6008093930124C08091C60080939701B2
:100B70001FC08091C600809346011AC08091C600B4
:100B8000E0914601F0E0E45BFE4F8083809132010A
:100B9000833019F40E948A0004C0843011F40E944A
:100BA000DE001092900110928F0181E08093470146
:100BB00080912A0190919301890F80932B0180915C
:100BC00044018F5F6AE00E94F80590934401FF9111
:100BD000EF91BF91AF919F918F917F916F915F91B5
:100BE0004F913F912F910F900FBE0F901F9018952E
:100BF000991B79E004C0991F961708F0961B881F6F
:100C00007A95C9F78095089587FB082E062687FDFB
:100C1000819567FD6195ECDF0EF4919507FC819558
:060C20000895F894FFCFD7
:100C26002B00052B00062B000725000025000128B8
:100C360000022800032800042B00052B00062B00C9
:100C460007250000280004110502020A01060064B7
:020C560000009C
:00000001FF
