:100000000C9434000C9451000C9451000C94510049
:100010000C9451000C9451000C9451000C9451001C
:100020000C9451000C9456020C9451000C94510005
:100030000C9451000C9451000C9451000C945100FC
:100040000C9451000C9451000C9408050C94510030
:100050000C9451000C9451000C9451000C945100DC
:100060000C9451000C94510011241FBECFEFD8E026
:10007000DEBFCDBF11E0A0E0B1E0EAE0FCE002C0ED
:1000800005900D92A233B107D9F711E0A2E3B1E0D8
:1000900001C01D92AA3AB107E1F70E9400020C9438
:1000A00003060C940000DF93CF9300D00F92CDB7DE
:1000B000DEB769837A838B83E981FA8121E030E0BE
:1000C00002C0220F331F8A95E2F78081822B808342
:1000D0000F900F900F90CF91DF910895DF93CF9302
:1000E00000D00F92CDB7DEB769837A838B83E98125
:1000F000FA8121E030E002C0220F331F8A95E2F737
:1001000020958081822380830F900F900F90CF9154
:10011000DF910895E0911B01F0911C0141E050E056
:10012000CA0100901D0102C0880F991F0A94E2F7CE
:100130008095208128232083E0911E01F0911F01EA
:10014000CA010090200102C0880F991F0A94E2F7AB
:100150008095208128232083E0911801F0911901D6
:10016000CA0100901A0102C0880F991F0A94E2F791
:10017000809520812823208341982A982998E0910E
:100180002101F0912201CA010090230102C0880FD1
:10019000991F0A94E2F78095208128232083E0911B
:1001A0002401F09125010090260102C0440F551F43
:1001B0000A94E2F78081842B8083089529982A98F5
:1001C0004198E0912401F091250121E030E0A9015E
:1001D0000090260102C0440F551F0A94E2F7808167
:1001E000842B8083E0911B01F0911C01A9010090F8
:1001F0001D0102C0440F551F0A94E2F78081842B31
:100200008083E0911E01F0911F01A901009020015F
:1002100002C0440F551F0A94E2F78081842B80832B
:10022000E0912101F0912201A9010090230102C077
:10023000440F551F0A94E2F78081842B8083E0915C
:100240001801F091190100901A0102C0220F331F0A
:100250000A94E2F78081822B808308950895EAE76B
:10026000F0E0808183688083ECE7F0E08081806447
:10027000808308951092B000E1EBF0E0108280815D
:100280008260808381E08093700008959093C50020
:100290008093C40088E98093C1008EE08093C200FF
:1002A000089584B18C6284B988E58CBD08958EBDB3
:1002B0000DB407FEFDCF0895EF92FF920F931F93A9
:1002C000282F259525952595332727FD30958901DC
:1002D000000F111F020F131F00501F4FD801ED9187
:1002E000FC91119791E0E92EF12C970112960C9058
:1002F00002C0220F331F0A94E2F7209590819223C7
:10030000908368E00E94F605E92FFF27E7FDF0954E
:10031000EE55FE4F8081886090E00E94570180E09A
:1003200090E00E945701D801ED91FC91119712962F
:100330000C9002C0EE0CFF1C0A94E2F780818E291B
:1003400080831F910F91FF90EF900895CF92DF92DD
:10035000EF92FF920F931F93CF93DF93E62FEE243C
:10036000FF24E81AF90A80E098E0E80EF91E862FCB
:1003700086958695869590E08C01000F111F080FD9
:10038000191F00501F4FE801A881B98161E0C62EF6
:10039000D12CC6010A8002C0880F991F0A94E2F787
:1003A00080952C9128232C938F2D992787FD9A9542
:1003B0008F70F0E0E770F070EE55FE4F2081822BD9
:1003C00090E00E945701E0928A018E2D90E00E94F9
:1003D0005701E881F9810A8002C0CC0CDD1C0A9427
:1003E000E2F780818C298083DF91CF911F910F915B
:1003F000FF90EF90DF90CF9008955A985A9A089501
:100400001F938091280190912701899F802D1124AD
:1004100080939701E2EAF1E090E0892F8295807F56
:1004200081939F5F9830C9F78EE187B98FEF8AB9C2
:100430008FE184B9789484B18C6284B988E58CBDED
:100440001092B0001092B1008091B1008260809350
:10045000B10081E0809370001092C50083E3809327
:10046000C40088E98093C1008EE08093C20080912F
:100470007A00836880937A0080917C008064809306
:100480007C0080917A00806480937A00809178006B
:100490008091780010E080E090E0612F0E94A6013A
:1004A0001F5F1034C1F75A985A9AFFCF1F920F92CC
:1004B0000FB60F9211242F933F934F935F936F9337
:1004C0007F938F939F93AF93BF93EF93FF9380910D
:1004D0004301882309F48BC220919001309191014E
:1004E00080912D0190912E01821793070CF076C216
:1004F00080913201882399F580918B0190918C0134
:10050000009721F48FEF8093C6001CC181309105C4
:1005100031F480917A00806480937A00CFC0823079
:10052000910509F4CBC08330910509F446C28430AB
:10053000910569F4909178009093940180917900ED
:10054000809396019093C60080E090E0FFC00597ED
:1005500009F033C2809196018093C6002CC2873087
:1005600031F58093930180918B0190918C010097DC
:1005700091F48FEF8093C60080919201992787FDB7
:100580009095A4E0880F991FAA95E1F79093380100
:100590008093370184C08130910509F48FC0823087
:1005A000910509F4EEC183309105B9F429C0813079
:1005B00009F062C080918B0190918C01823091058D
:1005C000F9F08330910534F4009759F0019709F060
:1005D000F4C10DC083309105B1F0049709F0EDC16D
:1005E000E8C180917A00806480937A004DC1809147
:1005F000940180938F018091960180938D01C1C1F8
:100600008091960142C180912C012091330130915B
:100610003401882381F0205E3F4F309334012093D2
:1006200033018091390190913A0128173907BCF0C4
:1006300010922C0114C0C9018097909334018093CB
:10064000330121E030E04091370150913801241B03
:10065000350B821793071CF481E080932C01809165
:100660003301909134019C01F4E035952795FA957A
:10067000E1F72093C6006AC0823009F0C9C080E16A
:100680008093930180918B0190918C01009799F454
:100690008FEF8093C6008091390190913A0160916B
:1006A00042010E94A6015A985A9A80917A00806469
:1006B00080937A0082C18130910519F41092C600AE
:1006C0007CC18230910509F45CC18330910509F049
:1006D00040C0809196018093C600382F20E0809121
:1006E000940190E0822B932B909399018093980131
:1006F00040E052E0481B590B509389014093880118
:1007000080912901282F30E0C90101974817590726
:1007100060F48091370190913801909581959F4FB9
:10072000909336018093350148C12E5F3F4F4217A9
:10073000530708F042C181E08093410110923601D5
:10074000109235018091390190913A0160914201F6
:10075000B6C08430910509F03FC08091410180937B
:10076000C600882321F01092360110923501809145
:10077000350190913601609142010E94A6015A987C
:100780005A9A20913501309136018091370190912C
:10079000380144275527481B590B2417350729F4DE
:1007A000109236011092350108C180912A0190E023
:1007B000E4E0880F991FEA95E1F7821793072CF47C
:1007C0005093360140933501F8C0205E3F4F30937F
:1007D000360120933501F1C0059709F0EEC08091F4
:1007E00041018093C60080E090E0609142010E9448
:1007F000A6015A985A9A80914101882311F01092CB
:1008000043018FEF9FEF90938C0180938B01D5C0B4
:100810008830F1F580918B0190918C01009709F45B
:100820005CC081309105D1F480913B0190913C01F5
:1008300060E00E94A60180913B0190913C0161E043
:100840000E94A60180913B0190913C0162E00E94D0
:10085000A60180913B0190913C01A7C08230910597
:1008600081F480E090E060E00E94A60180E090E0EA
:1008700061E00E94A60180E090E062E00E94A60193
:1008800092C08330910561F58FEF8093C60095C0CB
:10089000853009F092C080918B0190918C01009776
:1008A00019F40E948A0089C08130910569F4809111
:1008B000370190913801909581959F4F60E00E949B
:1008C000A6015A985A9A79C082309105E9F083308E
:1008D000910531F48FEF8093C6000E94DE006DC059
:1008E0008430910531F48091390190913A0160E0B2
:1008F000D8CE8530910509F444C08630910539F48D
:10090000809196018093C60080E090E0D7CF873039
:10091000910531F48091390190913A0161E0C1CEA5
:100920008830910571F18930910541F480919601EB
:100930008093C60080E090E061E0C1CF8A309105ED
:1009400031F48091390190913A0162E0AACE8B3066
:100950009105B9F08C30910541F480919601809316
:10096000C60080E090E062E0AACF8D30910531F4BE
:100970008091390190913A0163E093CE8E309105D8
:1009800059F490917800909394018091790080932C
:1009900096019093C60011C08F30910541F480916B
:1009A00096018093C60080E090E063E088CF409796
:1009B00021F41092C60010924301109291011092FE
:1009C000900180914301882349F080918B0190919F
:1009D0008C01019690938C0180938B018091900102
:1009E0009091910101969093910180939001FF91D4
:1009F000EF91BF91AF919F918F917F916F915F9197
:100A00004F913F912F910F900FBE0F901F9018950F
:100A10001F920F920FB60F9211242F933F934F9373
:100A20005F936F937F938F939F93AF93BF93EF9356
:100A3000FF932091C60020939F0180914001843054
:100A400009F471C0853058F4813041F18130D0F023
:100A5000823009F44AC0833009F09CC058C0873006
:100A600009F47AC0883038F4853009F46FC08630D4
:100A700009F090C06EC0883009F471C0893009F067
:100A800089C070C02F3F31F010923D0183E0809308
:100A9000400180C081E080933D017CC0213051F451
:100AA00080913201813031F0109234011092330183
:100AB00010922C0120933201213039F484E090E02F
:100AC00090932E0180932D0165C086E090E0909375
:100AD0002E0180932D01223009F05CC0109241015B
:100AE000109236011092350155C020939201822F49
:100AF00090E090939B0180939A0134E0880F991FB6
:100B00003A95E1F7909338018093370143C0822FE3
:100B100090E024E0880F991F2A95E1F790933A011D
:100B20008093390137C080913201823019F42093CB
:100B3000290130C0822F90E0B4E0880F991FBA9548
:100B4000E1F790933C0180933B0124C020932A015C
:100B500021C020938E011EC0209393011BC02093BF
:100B6000420118C0E0914201F0E0E85BFE4F2083B3
:100B700080913201833019F40E948A0004C08430CD
:100B800011F40E94DE0010928C0110928B0181E022
:100B90008093430180912A0190918E01890F809367
:100BA0002B01809140018F5F6AE00E94EA059093DB
:100BB0004001FF91EF91BF91AF919F918F917F91F4
:100BC0006F915F914F913F912F910F900FBE0F90BA
:100BD0001F901895991B79E004C0991F961708F08B
:100BE000961B881F7A95C9F78095089587FB082E74
:100BF000062687FD819567FD6195ECDF0EF49195E2
:0A0C000007FC81950895F894FFCFDA
:100C0A002B00052B00062B000725000025000128D4
:100C1A0000022800032800042B00052B00062B00E5
:100C2A0007250000280004110502020A01060064D3
:020C3A000000B8
:00000001FF
