:100000000C9434000C9451000C9451000C94510049
:100010000C9451000C9451000C9451000C9451001C
:100020000C9451000C9483010C9451000C945100D9
:100030000C9451000C9451000C9451000C945100FC
:100040000C9451000C9451000C94F7040C94510042
:100050000C9451000C9451000C9451000C945100DC
:100060000C9451000C94510011241FBECFEFD8E026
:10007000DEBFCDBF11E0A0E0B1E0E4E0FCE002C0F3
:1000800005900D92AE31B107D9F711E0AEE1B1E0C4
:1000900001C01D92A137B107E1F70E942C010C9419
:1000A00000060C940000EAE7F0E08081836880831A
:1000B000ECE7F0E080818064808308951092B000C6
:1000C000E1EBF0E0108280818260808381E08093A8
:1000D000700008959093C5008093C40088E98093D0
:1000E000C1008EE08093C20008958CE284B988E557
:1000F0008CBD08955E985F985D984498419A2A9ABD
:10010000299A289A089529982A984198449A5E9A9B
:100110005F9A289A5D9A08958EBD0DB407FEFDCFB3
:1001200008950F931F93CF93DF939BB1282F2595AD
:1001300025952595C22FDD27C7FDD095C85FDE4FD9
:1001400001E010E09801088002C0220F331F0A94DA
:10015000E2F7209529232BB968E00E94DF05E92FFB
:10016000FF27E7FDF095E25FFE4F8081886090E019
:100170000E948C0080E090E00E948C008BB108808F
:1001800002C0000F111F0A94E2F7802B8BB9DF9198
:10019000CF911F910F910895CF92DF92EF92FF922E
:1001A0000F931F93CF93DF93E62F00271127081B90
:1001B000190B0050184FC62EC694C694C6948C2DA9
:1001C00090E06C01CC0CDD1C20E031E0C20ED31EAF
:1001D000E601A881B981EC01C85FDE4F91E0E92E0C
:1001E000F12CC701088002C0880F991F0A94E2F71A
:1001F00080952C9128232C93812F992787FD9A9500
:100200008F70F0E0E770F070E25FFE4F2081822B8C
:100210008093620190E00E948C0000936201802F25
:1002200090E00E948C00D601ED91FC91088002C004
:10023000EE0CFF1C0A94E2F780818E298083DF9107
:10024000CF911F910F91FF90EF90DF90CF90089585
:1002500008955A985A9A08951F9380910D0190918C
:100260000C01899F802D112480936901EEE0F1E05B
:1002700080818295807F819381E0E631F807C1F724
:1002800088B188B98EE187B98FEF8AB98FE184B9D7
:1002900078948CE284B988E58CBD1092B0001092FD
:1002A000B1008091B10082608093B10081E08093C1
:1002B00070001092C50083E38093C40088E98093A6
:1002C000C1008EE08093C20080917A0083688093A1
:1002D0007A0080917C00806480937C0080917A0019
:1002E000806480937A00809178008091780010E09B
:1002F00080E090E0612F0E94CC001F5F1032C1F7B8
:100300005A985A9AFFCF1F920F920FB60F9211244C
:100310002F933F934F935F936F937F938F939F930D
:10032000AF93BF93EF93FF9320915F0130916001F2
:1003300080911A0190911B01821793070CF03DC325
:1003400060911E01662309F040C020915B0130914D
:100350005C012130310559F490917800909364014B
:1003600080917900809368019093C6000DC022307F
:10037000310529F4809168018093C60005C02115DC
:10038000310511F48FEFB3C28091160190E0281768
:10039000390709F4DEC280915E0190E02817390721
:1003A00009F4D7C201962817390709F4B0C2809121
:1003B000180190E02817390709F0CBC28091C000DE
:1003C00085FFC7C280916A01C2C2613009F086C050
:1003D0008091590190915A01019690935A0180930E
:1003E000590180917001823041F1833030F48823CB
:1003F00051F0813009F069C00DC0833019F18430AB
:1004000009F063C060C080917A00806480937A00B4
:100410008FEF15C080916401809361018091680124
:1004200080935D01909178009093640180917900B0
:10043000809368019093C60048C0809168018093C2
:10044000C60043C020911F0130912001309322014A
:100450002093210180911901882381F0205E3F4F74
:100460003093200120931F018091290190912A014E
:1004700028173907B4F01092190113C0C9018097E9
:100480009093200180931F0121E030E040912701EB
:1004900050912801241B350B8217930714F46093A5
:1004A000190180911F01909120019C01B4E03595C4
:1004B0002795BA95E1F72093C600609132010E941A
:1004C000CC005A985A9A1092C600809170018F5FA2
:1004D00065E00E94D305909370013BC2623009F041
:1004E0009DC080E18093630180915B0190915C01EC
:1004F000009721F48FEF8093C600FFC181309105F2
:1005000019F48091310123C28230910509F410C29F
:1005100083309105D1F5809168018093C600382F12
:1005200020E08091640190E0822B932B90936B01EB
:1005300080936A0120E032E0281B390B3093580188
:10054000209357018091160190E02817390760F435
:100550008091270190912801909581959F4F9093CC
:10056000260180932501F5C101962817390708F067
:10057000F0C181E080933101109226011092250193
:100580008091290190912A01DBC08430910509F006
:100590003FC01092C60080913101882321F0109253
:1005A00026011092250180912501909126016091EC
:1005B00032010E94CC005A985A9A2091250130911C
:1005C0002601809127019091280144275527481B37
:1005D000590B2417350729F4109226011092250192
:1005E000B8C18091170190E0A4E0880F991FAA95E7
:1005F000E1F7821793072CF45093260140932501CD
:10060000A8C1205E3F4F3093260120932501A1C150
:10061000059709F09EC11092C60090C0653009F0A0
:1006200075C080915B0190915C0181309105B1F1C1
:100630008230910561F480912B0190912C0163E04F
:100640000E94CC0080912B0190912C010AC0833034
:10065000910549F480E090E063E00E94CC0080E0E6
:1006600090E062E06FC08430910519F40E947A0036
:1006700070C18530910529F480912701909128015E
:1006800005C08630910521F480E090E063E05AC017
:100690008730910531F48FEF8093C6000E9483006C
:1006A00058C18830910531F48091290190912A0137
:1006B00063E029C18930910509F43AC18A30910576
:1006C00029F4809168018093C600DECF8B309105BC
:1006D00031F48091290190912A0162E014C18C309B
:1006E000910509F425C10D9709F033C18091680186
:1006F0008093C60080E090E062E00E94CC005A98AF
:100700005A9A10925C0110925B0123C1663009F085
:1007100020C180915B0190915C01009761F4809110
:100720002B0190912C01609132010E94CC005A98CB
:100730005A9A8FEF0CC18130910549F480E090E026
:10074000609132010E94CC005A985A9A02C18330BB
:10075000910509F0C7C040913301509134012091B7
:100760006901822F90E04817590718F410922F0161
:1007700023C0822F90E09C01220F331F42175307A2
:1007800010F481E017C0280F391F4217530710F4E7
:1007900082E010C09C01220F331F220F331F42172B
:1007A000530710F483E006C0280F391F4217530780
:1007B00018F484E080932F0180912F018093C6006C
:1007C00090E0809590959695982F88279795879596
:1007D00090936D0180936C01609132010E94CC0076
:1007E0005A985A9A409135015091360180910C01E6
:1007F00090E04817590718F410922E0149C09C0147
:10080000220F331F4217530760F481E080932E01BB
:1008100080E090E05A985A9A019688329105D1F773
:1008200037C0280F391F4217530760F482E08093C6
:100830002E0180E090E05A985A9A0196803A9105EC
:10084000D1F726C0880F991F880F991F481759079D
:1008500068F483E080932E0180E090E05A985A9AE1
:10086000019622E080389207C9F712C08091690191
:1008700090E04817590760F484E080932E0180E0EF
:1008800090E05A985A9A01962AE080309207C9F768
:10089000809132010E9491005A985A9A80913301B6
:1008A000909134010196909334018093330120910B
:1008B000690145E0249F900111242817390720F48D
:1008C00010923401109233016091690180913301DB
:1008D0009091340170E00E94EC0590933601809372
:1008E000350137C08430910529F480912E01809321
:1008F000C60024CF8630910581F480912901909122
:100900002A01609132010E94CC005A985A9A809133
:100910007A00806480937A001CC08730910599F436
:1009200080E090E0609132010E94CC005A985A9A7F
:100930009091780090936401809179008093680190
:100940009093C60006C0089721F4809168018093B7
:10095000C6001092600110925F0180911E018530E7
:1009600069F480915B0190915C01803191052CF5D7
:10097000019690935C0180935B011FC020915B0105
:1009800030915C01823049F4C901019690935C0179
:1009900080935B0109978CF00CC02F5F3F4F309321
:1009A0005C0120935B018091630190E082179307C3
:1009B00024F410925C0110925B0180915F01909190
:1009C000600101969093600180935F01FF91EF9128
:1009D000BF91AF919F918F917F916F915F914F9157
:1009E0003F912F910F900FBE0F901F9018951F925F
:1009F0000F920FB60F9211242F933F934F935F9353
:100A00006F937F938F939F93AF93BF93EF93FF93D6
:100A100080913001843009F469C0853058F4813008
:100A200051F18130D0F0823009F442C0833009F0B6
:100A30009AC04FC0873009F479C0883038F48530C7
:100A400009F46AC0863009F08EC06BC0883009F4A2
:100A500072C0893009F087C073C08091C6008F3F93
:100A600031F010922D0183E0809330017CC081E051
:100A700080932D0178C02091C60020931E01213063
:100A800039F484E090E090931B0180931A016BC0CD
:100A900086E090E090931B0180931A01223009F0C8
:100AA00062C01092310110922601109225015BC0A4
:100AB0008091C60090E0909366018093650144E0C8
:100AC000880F991F4A95E1F7909328018093270199
:100AD0004AC08091C60090E034E0880F991F3A9593
:100AE000E1F790932A01809329013DC080911E0176
:100AF000823029F48091C6008093160134C0809121
:100B0000C60090E024E0880F991F2A95E1F79093A2
:100B10002C0180932B0127C08091C6008093170180
:100B200022C08091C60080935E011DC08091C600E6
:100B30008093630118C08091C6008093320113C076
:100B40008091C600E0913201F0E0E95CFE4F8083C5
:100B500080911E01833019F40E947A0004C0843011
:100B600011F40E9483008091170190915E01890F1A
:100B700080931801809130018F5F6AE00E94D30555
:100B800090933001FF91EF91BF91AF919F918F9121
:100B90007F916F915F914F913F912F910F900FBE79
:100BA0000F901F901895991B79E004C0991F961714
:100BB00008F0961B881F7A95C9F78095089587FBE2
:100BC000082E062687FD819567FD6195ECDF0EF402
:100BD000919507FC81950895AA1BBB1B51E107C0A5
:100BE000AA1FBB1FA617B70710F0A61BB70B881FBD
:100BF000991F5A95A9F780959095BC01CD0108954C
:040C0000F894FFCF96
:100C04002B002B002B00280005060704110500010A
:0E0C140002030405060702020A01060064003E
:00000001FF
