:100000000C9434000C9451000C9451000C94510049
:100010000C9451000C9451000C9451000C9451001C
:100020000C9451000C9475010C9451000C945100E7
:100030000C9451000C9451000C9451000C945100FC
:100040000C9451000C9451000C94F5040C94510044
:100050000C9451000C9451000C9451000C945100DC
:100060000C9451000C94510011241FBECFEFD8E026
:10007000DEBFCDBF11E0A0E0B1E0E0E0FCE002C0F7
:1000800005900D92A631B107D9F711E0A6E1B1E0D4
:1000900001C01D92AA35B107E1F70E941E010C9420
:1000A000FE050C940000EAE7F0E08081836880831D
:1000B000ECE7F0E080818064808308951092B000C6
:1000C000E1EBF0E0108280818260808381E08093A8
:1000D000700008959093C5008093C40088E98093D0
:1000E000C1008EE08093C20008958CE284B988E557
:1000F0008CBD08955E985F985D984498419A2A9ABD
:10010000299A289A089529982A984198449A5E9A9B
:100110005F9A289A5D9A08958EBD0DB407FEFDCFB3
:1001200008950F931F93CF93DF939BB1282F2595AD
:1001300025952595C22FDD27C7FDD095C050DF4FEF
:1001400001E010E09801088002C0220F331F0A94DA
:10015000E2F7209529232BB968E00E94DD05E92FFD
:10016000FF27E7FDF095EB5FFE4F8081886090E010
:100170000E948C0080E090E00E948C008BB108808F
:1001800002C0000F111F0A94E2F7802B8BB9DF9198
:10019000CF911F910F910895CF92DF92EF92FF922E
:1001A0000F931F93E62F00271127081B190B0050F0
:1001B000184F2BB1862F86958695869530E0C32EF5
:1001C00031E0D32EC80ED11C91E0E92EF12CC701ED
:1001D000D6010C9002C0880F991F0A94E2F780950F
:1001E00082238BB9812F992787FD9A958F70F0E034
:1001F000E770F070EB5FFE4F2081822B80934B0104
:1002000090E00E948C0000934B01802F90E00E94B0
:100210008C008BB1F601008002C0EE0CFF1C0A942A
:10022000E2F78E298BB91F910F91FF90EF90DF902D
:10023000CF90089508955A985A9A08951F938091DF
:10024000040190910301899F802D11248093520114
:10025000E5E0F1E080818295807F819381E0ED305F
:10026000F807C1F788B188B98EE187B98FEF8AB9ED
:100270008FE184B978948CE284B988E58CBD1092C2
:10028000B0001092B1008091B10082608093B10003
:1002900081E0809370001092C50083E38093C400D6
:1002A00088E98093C1008EE08093C20080917A003B
:1002B000836880937A0080917C00806480937C00C6
:1002C00080917A00806480937A0080917800809198
:1002D000780010E080E090E0612F0E94CC001F5F6A
:1002E0001131C1F75A985A9AFFCF1F920F920FB649
:1002F0000F9211242F933F934F935F936F937F93AC
:100300008F939F93AF93BF93EF93FF9320914801F7
:100310003091490180911101909112018217930748
:100320000CF049C360911601662309F040C020918A
:100330004401309145012130310559F49091780004
:1003400090934D0180917900809351019093C60064
:100350000DC02230310529F4809151018093C600EF
:1003600005C02115310511F48FEFBFC280910D0139
:1003700090E02817390709F4EAC28091470190E01C
:100380002817390709F4E3C201962817390709F439
:10039000BCC280910F0190E02817390709F0D7C23D
:1003A0008091C00085FFD3C280915301CEC26130DD
:1003B00009F086C08091420190914301019690938B
:1003C00043018093420180915901823041F1833091
:1003D00030F4882351F0813009F069C00DC08330BA
:1003E00019F1843009F063C060C080917A008064A4
:1003F00080937A008FEF15C080914D0180934A0160
:1004000080915101809346019091780090934D0125
:1004100080917900809351019093C60048C08091EB
:1004200051018093C60043C02091170130911801FB
:1004300030931A012093190180911001882381F0D3
:10044000205E3F4F309318012093170180912101C6
:100450009091220128173907B4F01092100113C0AF
:10046000C9018097909318018093170121E030E033
:1004700040911F0150912001241B350B82179307D7
:1004800014F46093100180911701909118019C0160
:1004900044E0359527954A95E1F72093C600609191
:1004A0002A010E94CC005A985A9A1092C600809154
:1004B00059018F5F65E00E94D1059093590147C2B1
:1004C000623009F0A9C080E180934C018091440121
:1004D00090914501009709F040C08FEF8093C600CE
:1004E00080912901882321F010921E0110921D0194
:1004F00080911D0190911E0160912A010E94CC0003
:100500005A985A9A20911D0130911E0180911F0125
:100510009091200144275527481B590B2417350774
:1005200029F410921E0110921D0111C280910E013A
:1005300090E0B4E0880F991FBA95E1F7821793070E
:100540002CF450931E0140931D0101C2205E3F4FC9
:1005500030931E0120931D01FAC18130910559F499
:1005600080E090E060912A010E94CC005A985A9A4B
:1005700080912901EAC18230910509F4D7C1833005
:100580009105D1F5809151018093C600382F20E06C
:1005900080914D0190E0822B932B90935401809396
:1005A000530140E052E0481B590B509341014093E6
:1005B000400180910D01282F30E0C90101974817B3
:1005C000590760F480911F019091200190958195C9
:1005D0009F4F90931E0180931D01B9C12E5F3F4F25
:1005E0004217530708F0B3C181E0809329011092AC
:1005F0001E0110921D0103C08530910529F48091E0
:100600002101909122019AC08630910509F47DC1A3
:10061000079709F09CC190C0653009F075C08091C2
:1006200044019091450181309105B1F182309105ED
:1006300061F4809123019091240163E00E94CC0039
:1006400080912301909124010AC08330910549F4DF
:1006500080E090E063E00E94CC0080E090E062E007
:100660006FC08430910519F40E947A0070C1853002
:10067000910529F480911F019091200105C08630D9
:10068000910521F480E090E063E05AC08730910545
:1006900031F48FEF8093C6000E94830058C18830E8
:1006A000910531F4809121019091220163E029C1EB
:1006B0008930910509F43AC18A30910529F4809175
:1006C00051018093C600DECF8B30910531F48091CB
:1006D00021019091220162E014C18C30910509F44E
:1006E00025C10D9709F033C1809151018093C60057
:1006F00080E090E062E00E94CC005A985A9A1092F2
:1007000045011092440123C1663009F020C1809157
:10071000440190914501009761F4809123019091EB
:10072000240160912A010E94CC005A985A9A8FEFB6
:100730000CC18130910549F480E090E060912A017C
:100740000E94CC005A985A9A02C18330910509F050
:10075000C7C040912B0150912C0120915201822F52
:1007600090E04817590718F41092270123C0822FF0
:1007700090E09C01220F331F4217530710F481E0D1
:1007800017C0280F391F4217530710F482E010C01A
:100790009C01220F331F220F331F4217530710F4FF
:1007A00083E006C0280F391F4217530718F484E06E
:1007B00080932701809127018093C60090E0809567
:1007C00090959695982F88279795879590935601A1
:1007D0008093550160912A010E94CC005A985A9A40
:1007E00040912D0150912E018091030190E0481716
:1007F000590718F41092260149C09C01220F331F9B
:100800004217530760F481E08093260180E090E076
:100810005A985A9A019688329105D1F737C0280F15
:10082000391F4217530760F482E08093260180E06D
:1008300090E05A985A9A0196803A9105D1F726C0CD
:10084000880F991F880F991F4817590768F483E08C
:100850008093260180E090E05A985A9A019622E00F
:1008600080389207C9F712C08091520190E0481772
:10087000590760F484E08093260180E090E05A9864
:100880005A9A01962AE080309207C9F780912A018E
:100890000E9491005A985A9A80912B0190912C01B4
:1008A000019690932C0180932B012091520145E0F9
:1008B000249F900111242817390720F410922C014D
:1008C00010922B016091520180912B0190912C018B
:1008D00070E00E94EA0590932E0180932D0137C0AD
:1008E0008430910529F4809126018093C60024CF9D
:1008F0008630910581F480912101909122016091CF
:100900002A010E94CC005A985A9A80917A008064F9
:1009100080937A001CC08730910599F480E090E0C4
:1009200060912A010E94CC005A985A9A90917800BE
:1009300090934D0180917900809351019093C6006E
:1009400006C0089721F4809151018093C60010924F
:1009500049011092480180911601853069F4809117
:10096000440190914501803191052CF501969093B9
:100970004501809344011FC02091440130914501FD
:10098000823049F4C9010196909345018093440156
:100990000A978CF00CC02F5F3F4F30934501209396
:1009A000440180914C0190E08217930724F4109247
:1009B00045011092440180914801909149010196AE
:1009C0009093490180934801FF91EF91BF91AF91BE
:1009D0009F918F917F916F915F914F913F912F9157
:1009E0000F900FBE0F901F9018951F920F920FB689
:1009F0000F9211242F933F934F935F936F937F93A5
:100A00008F939F93AF93BF93EF93FF9380912801B0
:100A1000843009F469C0853058F4813051F1813057
:100A2000D0F0823009F442C0833009F09AC04FC040
:100A3000873009F479C0883038F4853009F46AC009
:100A4000863009F08EC06BC0883009F472C08930DE
:100A500009F087C073C08091C6008F3F31F01092BB
:100A6000250183E0809328017CC081E080932501EB
:100A700078C02091C60020931601213039F484E01B
:100A800090E090931201809311016BC086E090E09A
:100A90009093120180931101223009F062C01092EC
:100AA000290110921E0110921D015BC08091C600A9
:100AB00090E090934F0180934E0174E0880F991F4E
:100AC0007A95E1F79093200180931F014AC08091AD
:100AD000C60090E064E0880F991F6A95E1F7909353
:100AE0002201809321013DC080911601823029F4BA
:100AF0008091C60080930D0134C08091C60090E0C3
:100B000054E0880F991F5A95E1F790932401809340
:100B1000230127C08091C60080930E0122C08091DE
:100B2000C600809347011DC08091C60080934C0190
:100B300018C08091C60080932A0113C08091C6001E
:100B4000E0912A01F0E0E15DFE4F80838091160183
:100B5000833019F40E947A0004C0843011F40E949A
:100B6000830080910E0190914701890F80930F01BE
:100B7000809128018F5F6AE00E94D105909328013F
:100B8000FF91EF91BF91AF919F918F917F916F9165
:100B90005F914F913F912F910F900FBE0F901F903B
:100BA0001895991B79E004C0991F961708F0961BB9
:100BB000881F7A95C9F78095089587FB082E062629
:100BC00087FD819567FD6195ECDF0EF4919507FC3B
:100BD00081950895AA1BBB1B51E107C0AA1FBB1F2B
:100BE000A617B70710F0A61BB70B881F991F5A95B9
:100BF000A9F780959095BC01CD010895F894FFCF99
:100C00000506070E05000102030405060702020A95
:060C100001060064000073
:00000001FF
