:100000000C9434000C9451000C9451000C94510049
:100010000C9451000C9451000C9451000C9451001C
:100020000C9451000C9456020C9451000C94510005
:100030000C9451000C9451000C9451000C945100FC
:100040000C9451000C9451000C94DD050C9451005B
:100050000C9451000C9451000C9451000C945100DC
:100060000C9451000C94510011241FBECFEFD8E026
:10007000DEBFCDBF11E0A0E0B1E0E4EDFDE002C0E5
:1000800005900D92A233B107D9F711E0A2E3B1E0D8
:1000900001C01D92AC3AB107E1F70E9400020C9436
:1000A000E8060C940000DF93CF9300D00F92CDB7F9
:1000B000DEB769837A838B83E981FA8121E030E0BE
:1000C00002C0220F331F8A95E2F78081822B808342
:1000D0000F900F900F90CF91DF910895DF93CF9302
:1000E00000D00F92CDB7DEB769837A838B83E98125
:1000F000FA8121E030E002C0220F331F8A95E2F737
:1001000020958081822380830F900F900F90CF9154
:10011000DF910895E0911B01F0911C0141E050E056
:10012000CA0100901D0102C0880F991F0A94E2F7CE
:100130008095208128232083E0911E01F0911F01EA
:10014000CA010090200102C0880F991F0A94E2F7AB
:100150008095208128232083E0911801F0911901D6
:10016000CA0100901A0102C0880F991F0A94E2F791
:10017000809520812823208341982A982998E0910E
:100180002101F0912201CA010090230102C0880FD1
:10019000991F0A94E2F78095208128232083E0911B
:1001A0002401F09125010090260102C0440F551F43
:1001B0000A94E2F78081842B8083089529982A98F5
:1001C0004198E0912401F091250121E030E0A9015E
:1001D0000090260102C0440F551F0A94E2F7808167
:1001E000842B8083E0911B01F0911C01A9010090F8
:1001F0001D0102C0440F551F0A94E2F78081842B31
:100200008083E0911E01F0911F01A901009020015F
:1002100002C0440F551F0A94E2F78081842B80832B
:10022000E0912101F0912201A9010090230102C077
:10023000440F551F0A94E2F78081842B8083E0915C
:100240001801F091190100901A0102C0220F331F0A
:100250000A94E2F78081822B808308950895EAE76B
:10026000F0E0808183688083ECE7F0E08081806447
:10027000808308951092B000E1EBF0E0108280815D
:100280008260808381E08093700008959093C50020
:100290008093C40088E98093C1008EE08093C200FF
:1002A000089584B18C6284B988E58CBD08958EBDB3
:1002B0000DB407FEFDCF0895EF92FF920F931F93A9
:1002C000282F259525952595332727FD30958901DC
:1002D000000F111F020F131F00501F4FD801ED9187
:1002E000FC91119791E0E92EF12C970112960C9058
:1002F00002C0220F331F0A94E2F7209590819223C7
:10030000908368E00E94C706E92FFF27E7FDF0957C
:10031000EC55FE4F8081886090E00E94570180E09C
:1003200090E00E945701D801ED91FC91119712962F
:100330000C9002C0EE0CFF1C0A94E2F780818E291B
:1003400080831F910F91FF90EF900895CF92DF92DD
:10035000EF92FF920F931F93CF93DF93E62FEE243C
:10036000FF24E81AF90A80E098E0E80EF91E862FCB
:1003700086958695869590E08C01000F111F080FD9
:10038000191F00501F4FE801A881B98161E0C62EF6
:10039000D12CC6010A8002C0880F991F0A94E2F787
:1003A00080952C9128232C938F2D992787FD9A9542
:1003B0008F70F0E0E770F070EC55FE4F2081822BDB
:1003C00090E00E945701E0928D018E2D90E00E94F6
:1003D0005701E881F9810A8002C0CC0CDD1C0A9427
:1003E000E2F780818C298083DF91CF911F910F915B
:1003F000FF90EF90DF90CF9008955A985A9A089501
:100400001F938091280190912701899F802D1124AD
:1004100080939C01E4EAF1E090E0892F8295807F4F
:1004200081939F5F9830C9F78EE187B98FEF8AB9C2
:100430008FE184B9789484B18C6284B988E58CBDED
:100440001092B0001092B1008091B1008260809350
:10045000B10081E0809370001092C50083E3809327
:10046000C40088E98093C1008EE08093C20080912F
:100470007A00836880937A0080917C008064809306
:100480007C0080917A00806480937A00809178006B
:100490008091780010E080E090E0612F0E94A6013A
:1004A0001F5F1034C1F75A985A9AFFCF1F920F92CC
:1004B0000FB60F9211242F933F934F935F936F9337
:1004C0007F938F939F93AF93BF93EF93FF9320916D
:1004D00093013091940180912D0190912E0182170A
:1004E00093070CF050C360913201662391F520917F
:1004F0008E0130918F012115310511F48FEFECC27F
:100500002130310509F4FAC22230310509F403C360
:100510008091290190E02817390709F400C38091E0
:10052000920190E02817390709F4F9C201962817BB
:10053000390709F4D4C080912B0190E028173907BE
:1005400009F0EDC28091C00085FFE9C280919D0154
:10055000E4C2673059F56093960180918E019091C5
:100560008F01009791F48FEF8093C60080919001E6
:10057000992787FD9095F4E0880F991FFA95E1F788
:1005800090933C0180933B01A4C08130910559F0C8
:100590008230910509F4B2C28330910509F4BBC2DF
:1005A000049709F0BCC21092C600B9C2613009F0CC
:1005B0007DC080919F01823041F1833030F48823E7
:1005C00051F0813009F069C00DC0833019F18430D9
:1005D00009F063C060C080917A00806480937A00E3
:1005E0008FEF15C0809197018093950180919B01B9
:1005F0008093910190917800909397018091790078
:1006000080939B019093C60048C080919B0180938A
:10061000C60043C02091330130913401309336013C
:100620002093350180912C01882381F0205E3F4F7B
:10063000309334012093330180913D0190913E012C
:1006400028173907B4F010922C0113C0C901809704
:10065000909334018093330121E030E040913B01DD
:1006600050913C01241B350B8217930714F46093BF
:100670002C0180913301909134019C01E4E0359587
:100680002795EA95E1F72093C600609146010E9404
:10069000A6015A985A9A1092C60080919F018F5FC6
:1006A00065E00E94BB0690939F0139C2623009F059
:1006B000ADC080E18093960180918E0190918F0171
:1006C000009799F48FEF8093C60080913D0190913F
:1006D0003E01609146010E94A6015A985A9A809163
:1006E0007A00806480937A001AC28130910519F4EF
:1006F0008091450112C28230910509F4FFC1833017
:100700009105E9F580919B018093C600382F20E088
:100710008091970190E0822B932B90939E01809380
:100720009D0120E032E0281B390B30938C0120938F
:100730008B0140912901842F90E02817390760F43C
:1007400080913B0190913C01909581959F4F9093B2
:100750003A0180933901E3C1842F90E00196281774
:10076000390708F0DCC181E08093450110923A011D
:100770001092390180913D0190913E01D9C08430A1
:10078000910509F03FC01092C60080914501882371
:1007900021F010923A011092390180913901909123
:1007A0003A01609146010E94A6015A985A9A2091F6
:1007B000390130913A0180913B0190913C014427ED
:1007C0005527481B590B2417350729F410923A0175
:1007D00010923901A4C180912A0190E074E0880F41
:1007E000991F7A95E1F7821793072CF450933A01F9
:1007F0004093390194C1205E3F4F30933A012093DA
:1008000039018DC1059709F08AC190C0653009F0A2
:1008100075C080918E0190918F0181309105B1F169
:100820008230910561F480913F019091400163E035
:100830000E94A60180913F01909140010AC083303F
:10084000910549F480E090E063E00E94A60180E019
:1008500090E062E06FC08430910519F40E948A0034
:100860005EC18530910529F480913B0190913C0156
:1008700005C08630910521F480E090E063E05AC025
:100880008730910531F48FEF8093C6000E94DE001F
:1008900046C18830910531F480913D0190913E012F
:1008A00063E019CF8930910509F428C18A30910598
:1008B00029F480919B018093C600DECF8B30910597
:1008C00031F480913D0190913E0162E004CF8C3083
:1008D000910509F413C10D9709F021C180919B0185
:1008E0008093C60080E090E062E00E94A6015A98E2
:1008F0005A9A10928F0110928E0111C1663009F040
:100900000EC180918E0190918F01009761F48091CA
:100910003F0190914001609146010E94A6015A98C2
:100920005A9A8FEFFAC08130910549F480E090E047
:10093000609146010E94A6015A985A9AF0C08330ED
:10094000910509F0C4C04091470150914801809140
:100950009C0190E04817590718F41092430121C0F8
:100960009C01220F331F4217530710F481E017C078
:10097000280F391F4217530710F482E010C09C0162
:10098000220F331F220F331F4217530710F483E047
:1009900006C0280F391F4217530718F484E08093CC
:1009A0004301809143018093C60090E0809590952B
:1009B0009695982F8827979587959093A101809376
:1009C000A001609146010E94A6015A985A9A40914E
:1009D000490150914A018091270190E04817590739
:1009E00018F41092420149C09C01220F331F421794
:1009F000530760F481E08093420180E090E05A98D0
:100A00005A9A019688329105D1F737C0280F391FBD
:100A10004217530760F482E08093420180E090E047
:100A20005A985A9A0196803A9105D1F726C0880FB4
:100A3000991F880F991F4817590768F483E080931E
:100A4000420180E090E05A985A9A019622E080385C
:100A50009207C9F712C080919C0190E0481759078E
:100A600060F484E08093420180E090E05A985A9AC2
:100A700001962AE080309207C9F7809146010E94D2
:100A80005C015A985A9A80914701909148010196C9
:100A9000909348018093470120919C0145E0249F59
:100AA000900111242817390720F410924801109260
:100AB000470160919C01809147019091480170E04D
:100AC0000E94D40690934A018093490128C0843043
:100AD000910529F4809142018093C60027CF86308A
:100AE000910509F4F2CD8730910599F480E090E00A
:100AF000609146010E94A6015A985A9A90917800F6
:100B0000909397018091790080939B019093C60008
:100B100006C0089721F480919B018093C600109233
:100B200094011092930180913201853069F4809193
:100B30008E0190918F01803191052CF50196909353
:100B40008F0180938E011FC020918E0130918F0103
:100B5000823049F4C901019690938F0180938E01F0
:100B600008978CF00CC02F5F3F4F30938F0120937C
:100B70008E018091960190E08217930724F41092E1
:100B80008F0110928E0180919301909194010196B2
:100B90009093940180939301FF91EF91BF91AF9156
:100BA0009F918F917F916F915F914F913F912F9185
:100BB0000F900FBE0F901F9018951F920F920FB6B7
:100BC0000F9211242F933F934F935F936F937F93D3
:100BD0008F939F93AF93BF93EF93FF9380914401C3
:100BE000843009F46BC0853058F4813051F1813084
:100BF000D0F0823009F442C0833009F09CC051C06B
:100C0000873009F47BC0883038F4853009F46CC033
:100C1000863009F090C06DC0883009F474C0893006
:100C200009F089C075C08091C6008F3F31F01092E5
:100C3000410183E0809344017EC081E080934101C3
:100C40007AC02091C60020933201213039F484E02B
:100C500090E090932E0180932D016DC086E090E08E
:100C600090932E0180932D01223009F064C01092E0
:100C7000450110923A01109239015DC08091C60081
:100C80008093900190E0909399018093980124E0E3
:100C9000880F991F2A95E1F790933C0180933B01BF
:100CA0004AC08091C60090E0B4E0880F991FBA95C1
:100CB000E1F790933E0180933D013DC08091320168
:100CC000823029F48091C6008093290134C080913C
:100CD000C60090E0A4E0880F991FAA95E1F79093D1
:100CE000400180933F0127C08091C60080932A0174
:100CF00022C08091C600809392011DC08091C600E1
:100D00008093960118C08091C6008093460113C05D
:100D10008091C600E0914601F0E0E55BFE4F8083E4
:100D200080913201833019F40E948A0004C084301B
:100D300011F40E94DE0080912A0190919201890FA6
:100D400080932B01809144018F5F6AE00E94BB0673
:100D500090934401FF91EF91BF91AF919F918F913B
:100D60007F916F915F914F913F912F910F900FBEA7
:100D70000F901F901895991B79E004C0991F961742
:100D800008F0961B881F7A95C9F78095089587FB10
:100D9000082E062687FD819567FD6195ECDF0EF430
:100DA000919507FC81950895AA1BBB1B51E107C0D3
:100DB000AA1FBB1FA617B70710F0A61BB70B881FEB
:100DC000991F5A95A9F780959095BC01CD0108957A
:040DD000F894FFCFC5
:100DD4002B00032B00062B0007250000250001280B
:100DE40000022800032800042B00052B00062B001A
:100DF40007250000280004110502020A0106006408
:020E04000000EC
:00000001FF
