:100000000C9434000C9451000C9451000C94510049
:100010000C9451000C9451000C9451000C9451001C
:100020000C9451000C9425010C9451000C94510037
:100030000C9451000C9451000C9451000C945100FC
:100040000C9451000C9451000C9495040C945100A4
:100050000C9451000C9451000C9451000C945100DC
:100060000C9451000C94510011241FBECFEFD8E026
:10007000DEBFCDBF11E0A0E0B1E0EEE2FBE002C0E8
:1000800005900D92A231B107D9F711E0A2E1B1E0DC
:1000900001C01D92A135B107E1F70E94CC000C947C
:1000A00095050C940000EAE7F0E080818368808386
:1000B000ECE7F0E080818064808308951092B000C6
:1000C000E1EBF0E0108280818260808381E08093A8
:1000D000700008959093C5008093C40088E98093D0
:1000E000C1008EE08093C20008958CE284B988E557
:1000F0008CBD08955E985F985D984498419A2A9ABD
:10010000299A289A089529982A984198449A5E9A9B
:100110005F9A289A5D9A08958EBD0DB407FEFDCFB3
:1001200008955B98E82FFF27E7FDF095EE5FFE4FFF
:100130008081886090E00E948C0080E090E00E94C6
:100140008C005B9A08950F931F93E62F00271127C9
:10015000081B190B0050184F5B98812F992787FDBA
:100160009A958F70FF27E7FDF095EE5FFE4F208197
:10017000822B8093400190E00E948C00009340010C
:10018000802F90E00E948C005B9A1F910F91089540
:1001900008955A985A9A08951F9380910101909159
:1001A0000001899F802D112480934901E2E0F1E054
:1001B00080818295807F819381E0EA30F807C1F7E2
:1001C00088B188B98EE187B98EEF8AB98FE184B999
:1001D00078948CE284B988E58CBD1092B0001092BE
:1001E000B1008091B10082608093B10081E0809382
:1001F00070001092C50083E38093C40088E9809367
:10020000C1008EE08093C20080917A008368809361
:100210007A0080917C00806480937C0080917A00D9
:10022000806480937A00809178008091780010E05B
:1002300080E090E0612F0E94A3001F5F1830C1F79B
:100240005A985A9A0E948300FFCF1F920F920FB6BE
:100250000F9211242F933F934F935F936F937F934C
:100260008F939F93AF93BF93EF93FF9320913C01A4
:1002700030913D0180910E0190910F0182179307FB
:100280000CF039C360911201662309F065C020911A
:100290003801309139012130310559F490917800BD
:1002A0009093420180917900809346019093C6001B
:1002B0001BC02230310529F4809146018093C6008D
:1002C00013C02115310581F48FEF8093C600809112
:1002D0001B0190911C01609126010E94A300809156
:1002E0001B0190911C0132C080910A0190E02817F7
:1002F000390709F454C180913B0190E02817390770
:1003000009F438C101962817390709F4ACC2809165
:100310000C0190E02817390709F0C7C28091C0008E
:1003200085FF04C080914A018093C6001092480165
:10033000109247011092370110923E0180E090E048
:10034000609126010E94A30080E090E062E00E949C
:10035000A3005A985A9AA9C2613009F07CC08091D2
:1003600035019091360101969093360180933501C5
:1003700080915001813079F0813030F08230F1F09D
:10038000833009F061C01FC080917A00806480933F
:100390007A008FEF15C08091420180933F018091D8
:1003A000460180933A0190917800909342018091A8
:1003B0007900809346019093C60046C08091460123
:1003C0008093C60041C020911301309114013093F5
:1003D00016012093150180910D01882381F0205E84
:1003E0003F4F309314012093130180911D01909190
:1003F0001E0128173907B4F010920D0113C0C9016E
:100400008097909314018093130121E030E0409194
:100410001B0150911C01241B350B8217930714F408
:1004200060930D0180911301909114019C01B4E03F
:1004300035952795BA95E1F72093C600609126017E
:100440000E94A3005A985A9A809150018F5F83703E
:10045000809350012AC2623009F0A6C080E18093E7
:10046000410140913801509139014130510529F441
:10047000809125018093C60077C04230510559F420
:100480009091780090934201809179008093460189
:100490009093C6006CC04330510531F58091460100
:1004A0008093C600382F20E08091420190E0822B9B
:1004B000932B90934B0180934A0120E032E0281B5C
:1004C000390B309334012093330180910A0190E07D
:1004D0002817390709F048C081E080932501109260
:1004E0001A01109219014BC041155105E9F58FEF22
:1004F0008093C6002091190130911A01205E3F4F70
:1005000030931A012093190140911B0150911C0155
:1005100080E290E0841B950B2817390729F410928C
:100520001A011092190113C080910B0190E0A4E010
:10053000880F991FAA95E1F78217930744F488273B
:100540009927841B950B90931A0180931901809130
:100550002501882321F010921A011092190180912F
:10056000190190911A011DC047305105C1F0493061
:10057000510529F480911D0190911E0112C04A304D
:10058000510509F470C14E30510509F08EC1109229
:100590004801109247011092370110923E0180E00D
:1005A00090E060912601D3CE653009F063C0809160
:1005B000380190913901009769F18130910561F41A
:1005C00080911F019091200163E00E94A30080911F
:1005D0001F0190912001BACE8230910521F480E074
:1005E00090E063E0AFCE8330910519F40E947A0069
:1005F0005CC18430910529F480911B0190911C010C
:1006000022C085309105E9F08630910531F48FEFF5
:100610008093C6000E94830048C18730910531F461
:1006200080911D0190911E0163E019C189309105EF
:1006300009F42AC18A30910541F4809146018093E2
:10064000C60080E090E063E082CE8B30910531F40B
:1006500080911D0190911E0162E001C18D309105D4
:1006600009F412C10E9709F020C1809146018093D0
:10067000C6006ACE663009F018C1809138019091A9
:100680003901009761F480911F01909120016091E0
:1006900026010E94A3005A985A9A8FEF04C1813014
:1006A000910509F47CCF8330910509F0C7C04091D2
:1006B00027015091280120914901822F90E048178D
:1006C000590718F41092230123C0822F90E09C0157
:1006D000220F331F4217530710F481E017C0280F71
:1006E000391F4217530710F482E010C09C01220FFB
:1006F000331F220F331F4217530710F483E006C045
:10070000280F391F4217530718F484E08093230100
:10071000809123018093C60090E0809590959695F6
:10072000982F88279795879590934D0180934C013A
:10073000609126010E94A3005A985A9A409129017B
:1007400050912A018091000190E04817590718F450
:100750001092220149C09C01220F331F42175307F8
:1007600060F481E08093220180E090E05A985A9AE8
:10077000019688329105D1F737C0280F391F4217EB
:10078000530760F482E08093220180E090E05A9861
:100790005A9A0196803A9105D1F726C0880F991F81
:1007A000880F991F4817590768F483E08093220146
:1007B00080E090E05A985A9A019622E08038920799
:1007C000C9F712C08091490190E04817590760F4B9
:1007D00084E08093220180E090E05A985A9A019632
:1007E0002AE080309207C9F7809126010E9491008B
:1007F0005A985A9A809127019091280101969093D6
:100800002801809327012091490145E0249F900110
:1008100011242817390720F410922801109227017B
:1008200060914901809127019091280170E00E9418
:10083000810590932A018093290137C08430910566
:1008400029F4809122018093C600A9CE86309105BB
:1008500081F480911D0190911E01609126010E94FA
:10086000A3005A985A9A80917A00806480937A0003
:100870001CC08730910599F480E090E060912601DA
:100880000E94A3005A985A9A90917800909342013E
:1008900080917900809346019093C60006C0089726
:1008A00021F4809146018093C60010923D01109280
:1008B0003C0180911201209138013091390185303D
:1008C00089F02F5F3F4F3093390120933801809199
:1008D000410190E08217930774F41092390110924D
:1008E000380109C02E31310534F42F5F3F4F30936A
:1008F00039012093380180913C0190913D0101968E
:1009000090933D0180933C01FF91EF91BF91AF9196
:100910009F918F917F916F915F914F913F912F9117
:100920000F900FBE0F901F9018951F920F920FB649
:100930000F9211242F933F934F935F936F937F9365
:100940008F939F93AF93BF93EF93FF938091240175
:10095000843009F469C0853058F4813051F1813018
:10096000D0F0823009F442C0833009F09EC04FC0FD
:10097000873009F479C0883038F4853009F46AC0CA
:10098000863009F092C06BC0883009F472C089309B
:1009900009F08BC073C08091C6008F3F31F0109278
:1009A000210183E08093240180C081E080932101B4
:1009B0007CC02091C60020931201213039F484E0DC
:1009C00090E090930F0180930E016FC086E090E05D
:1009D00090930F0180930E01223009F066C01092AF
:1009E000250110921A01109219015FC08091C60072
:1009F00090E0909344018093430144E0880F991F55
:100A00004A95E1F790931C0180931B014EC08091A1
:100A1000C60090E034E0880F991F3A95E1F7909373
:100A20001E0180931D0141C080911201823029F482
:100A30008091C60080930A0138C08091C60090E082
:100A400024E0880F991F2A95E1F790932001809365
:100A50001F012BC08091C60080930B0126C080919E
:100A6000C60080933B0121C08091C6008093410164
:100A70001CC08091C6008093260117C08091C600DB
:100A8000E0912601F0E0E55DFE4F80831092390190
:100A90001092380180911201833019F40E947A007B
:100AA00004C0843011F40E94830080910B01909166
:100AB0003B01890F80930C01809124018F5F6AE0D4
:100AC0000E94750590932401FF91EF91BF91AF9122
:100AD0009F918F917F916F915F914F913F912F9156
:100AE0000F900FBE0F901F901895991B79E004C0CE
:100AF000991F961708F0961B881F7A95C9F780955D
:100B00000895AA1BBB1B51E107C0AA1FBB1FA61754
:100B1000B70710F0A61BB70B881F991F5A95A9F7A6
:0E0B200080959095BC01CD010895F894FFCF0B
:100B2E000E05000102030706050402020A01060073
:020B3E00640051
:00000001FF
