:100000000C9434000C9451000C9451000C94510049
:100010000C9451000C9451000C9451000C9451001C
:100020000C9451000C9419010C9451000C94510043
:100030000C9451000C9451000C9451000C945100FC
:100040000C9451000C9451000C9419040C94510020
:100050000C9451000C9451000C9451000C945100DC
:100060000C9451000C94510011241FBECFEFD8E026
:10007000DEBFCDBF11E0A0E0B1E0E4EFF9E002C0E7
:1000800005900D92A031B107D9F711E0A0E1B1E0E0
:1000900001C01D92A734B107E1F70E94C9000C947A
:1000A000F8040C940000EAE7F0E080818368808324
:1000B000ECE7F0E080818064808308951092B000C6
:1000C000E1EBF0E0108280818260808381E08093A8
:1000D000700008959093C5008093C40088E98093D0
:1000E000C1008EE08093C20008958CE284B988E557
:1000F0008CBD08955E985F985D984498419A2A9ABD
:10010000299A289A089529982A984198449A5E9A9B
:100110005F9A289A5D9A08958EBD0DB407FEFDCFB3
:1001200008955B98E82FFF27E7FDF095E050FF4F1B
:100130008081886090E00E948C0080E090E00E94C6
:100140008C005B9A08950F931F93E62F00271127C9
:10015000081B190B0050184F5B98812F992787FDBA
:100160009A958F70FF27E7FDF095E050FF4F2081B3
:10017000822B80933B0190E00E948C0000933B0116
:10018000802F90E00E948C005B9A1F910F91089540
:1001900008951F93E0E0F1E080818295807F819354
:1001A00081E0E830F807C1F788B188B98EE187B9F6
:1001B0008EEF8AB98FE184B978948CE284B988E5AE
:1001C0008CBD1092B0001092B1008091B10082609D
:1001D0008093B10081E0809370001092C50083E3AA
:1001E0008093C40088E98093C1008EE08093C200B0
:1001F00080917A00836880937A0080917C0080648B
:1002000080937C0080917A00806480937A00809152
:1002100078008091780010E080E090E0612F0E94EB
:10022000A3001F5F1830C1F75A985A9A0E948300A2
:10023000FFCF1F920F920FB60F9211242F933F936F
:100240004F935F936F937F938F939F93AF93BF93DE
:10025000EF93FF93209137013091380180910C0189
:1002600090910D01821793070CF0C9C260911001A3
:10027000662309F065C020913301309134012130AB
:10028000310559F49091780090933D018091790067
:1002900080933F019093C6001BC02230310529F4A2
:1002A00080913F018093C60013C02115310581F470
:1002B0008FEF8093C6008091190190911A0160918F
:1002C00023010E94A3008091190190911A0132C06C
:1002D0008091080190E02817390709F454C18091F2
:1002E000360190E02817390709F438C1019628171C
:1002F000390709F43CC280910A0190E028173907B8
:1003000009F057C28091C00085FF04C0809142016E
:100310008093C60010924101109240011092320168
:100320001092390180E090E0609123010E94A300C7
:1003300080E090E062E00E94A3005A985A9A39C285
:10034000613009F07CC080913001909131010196BB
:10035000909331018093300180914601813079F092
:10036000813030F08230F1F0833009F061C01FC07D
:1003700080917A00806480937A008FEF15C080911D
:100380003D0180933A0180913F0180933501909126
:10039000780090933D018091790080933F01909384
:1003A000C60046C080913F018093C60041C02091A5
:1003B00011013091120130931401209313018091A7
:1003C0000B01882381F0205E3F4F30931201209370
:1003D000110180911B0190911C0128173907B4F07D
:1003E00010920B0113C0C901809790931201809362
:1003F000110121E030E04091190150911A01241BB4
:10040000350B8217930714F460930B01809111014F
:10041000909112019C0174E0359527957A95E1F74A
:100420002093C600609123010E94A3005A985A9A13
:10043000809146018F5F837080934601BAC162301C
:1004400009F0A6C080E180933C01409133015091B6
:1004500034014130510529F4809122018093C60076
:1004600077C04230510559F49091780090933D0146
:100470008091790080933F019093C6006CC0433017
:10048000510531F580913F018093C600382F20E05F
:1004900080913D0190E0822B932B909343018093B8
:1004A000420120E032E0281B390B30932F012093CA
:1004B0002E018091080190E02817390709F048C003
:1004C00081E08093220110921801109217014BC015
:1004D00041155105E9F58FEF8093C6002091170172
:1004E00030911801205E3F4F30931801209317017F
:1004F0004091190150911A0180E290E0841B950B04
:100500002817390729F4109218011092170113C007
:100510008091090190E064E0880F991F6A95E1F7E6
:100520008217930744F488279927841B950B90938F
:1005300018018093170180912201882321F01092E5
:1005400018011092170180911701909118011DC098
:1005500047305105C1F04930510529F480911B0104
:1005600090911C0112C04A30510509F400C14E306F
:10057000510509F01EC110924101109240011092E4
:1005800032011092390180E090E060912301D3CED6
:10059000653009F05FC0809133019091340100977C
:1005A00049F18130910541F480E897E063E00E94D1
:1005B000A30080E897E0BECE8230910521F480E070
:1005C00090E063E0B3CE8330910519F40E947A0085
:1005D000F0C08430910529F48091190190911A019D
:1005E00022C085309105E9F08630910531F48FEF16
:1005F0008093C6000E948300DCC08730910531F4EF
:1006000080911B0190911C0163E0ADC08930910580
:1006100009F4BEC08A30910541F480913F01809376
:10062000C60080E090E063E086CE8B30910531F427
:1006300080911B0190911C0162E095C08D30910565
:1006400009F4A6C00E9709F0B4C080913F018093D1
:10065000C6006ECE663009F0ACC080913301909137
:100660003401009761F480911D0190911E01609109
:1006700023010E94A3005A985A9A8FEF98C08130A4
:10068000910509F480CF8330910509F05FC0809116
:10069000190190911A01609123010E94A3005A98B8
:1006A0005A9A80912401909125018431910528F472
:1006B000109220011092C60032C08832910568F471
:1006C000109220011092C60080E090E05A985A9A49
:1006D00001968E309105D1F722C08C33910570F4CC
:1006E00081E0809320018093C60080E090E05A98DA
:1006F0005A9A019681359105D1F711C0803591053F
:1007000070F482E0809320018093C60080E090E046
:100710005A985A9A019621E080349207C9F780913D
:1007200023010E9491005A985A9A80912401909135
:100730002501019690932501809324018035910530
:10074000C1F5109225011092240133C08430910527
:1007500009F419CF8630910581F480911B019091A5
:100760001C01609123010E94A3005A985A9A80911B
:100770007A00806480937A001CC08730910599F4D8
:1007800080E090E0609123010E94A3005A985A9A59
:100790009091780090933D018091790080933F0182
:1007A0009093C60006C0089721F480913F01809382
:1007B000C6001092380110923701809110012091EB
:1007C000330130913401853089F02F5F3F4F3093F2
:1007D00034012093330180913C0190E0821793070C
:1007E00074F4109234011092330109C02E31310596
:1007F00034F42F5F3F4F30933401209333018091C5
:100800003701909138010196909338018093370118
:10081000FF91EF91BF91AF919F918F917F916F91D8
:100820005F914F913F912F910F900FBE0F901F90AE
:1008300018951F920F920FB60F9211242F933F938A
:100840004F935F936F937F938F939F93AF93BF93D8
:10085000EF93FF9380912101843009F465C08530C6
:1008600058F4813051F18130D0F0823009F442C027
:10087000833009F091C04BC0873009F46CC08830D8
:1008800038F4853009F45DC0863009F085C05EC05B
:10089000883009F465C0893009F07EC066C0809157
:1008A000C6008F3F31F010921F0183E08093210139
:1008B00073C081E080931F016FC02091C600209318
:1008C0001001213039F484E090E090930D01809381
:1008D0000C0162C086E090E090930D0180930C01C2
:1008E000223009F059C01092220110921801109282
:1008F000170152C08091C60090E0A4E0880F991FB4
:10090000AA95E1F790931A018093190145C080914F
:10091000C60090E0F4E0880F991FFA95E1F79093F4
:100920001C0180931B0138C08091C60090E0E4E078
:10093000880F991FEA95E1F790931E0180931D019E
:100940002BC08091C6008093090126C08091C6000B
:100950008093360121C08091C60080933C011CC069
:100960008091C6008093230117C08091C600E0915A
:100970002301F0E0EA5DFE4F808310923401109273
:10098000330180911001833019F40E947A0004C071
:10099000843011F40E948300809109019091360106
:1009A000890F80930A01809121018F5F6AE00E9484
:1009B000EC0490932101FF91EF91BF91AF919F9132
:1009C0008F917F916F915F914F913F912F910F90F8
:1009D0000FBE0F901F901895991B79E004C0991FC6
:1009E000961708F0961B881F7A95C9F78095089589
:0409F000F894FFCFA9
:1009F400000102030706050402020A01060064005E
:00000001FF
